{
  "contractName": "Student",
  "abi": [
    {
      "inputs": [
        {
          "internalType": "string",
          "name": "_ipfsHash_photo",
          "type": "string"
        },
        {
          "internalType": "string",
          "name": "_id",
          "type": "string"
        },
        {
          "internalType": "string",
          "name": "_name",
          "type": "string"
        },
        {
          "internalType": "uint256",
          "name": "_age",
          "type": "uint256"
        },
        {
          "internalType": "string",
          "name": "_gmail",
          "type": "string"
        },
        {
          "internalType": "uint256",
          "name": "_mobileno",
          "type": "uint256"
        },
        {
          "internalType": "string",
          "name": "_course",
          "type": "string"
        },
        {
          "internalType": "address",
          "name": "_account",
          "type": "address"
        },
        {
          "internalType": "address",
          "name": "_admin",
          "type": "address"
        }
      ],
      "stateMutability": "nonpayable",
      "type": "constructor"
    },
    {
      "inputs": [],
      "name": "account",
      "outputs": [
        {
          "internalType": "address",
          "name": "",
          "type": "address"
        }
      ],
      "stateMutability": "view",
      "type": "function"
    },
    {
      "inputs": [],
      "name": "admin",
      "outputs": [
        {
          "internalType": "address",
          "name": "",
          "type": "address"
        }
      ],
      "stateMutability": "view",
      "type": "function"
    },
    {
      "inputs": [],
      "name": "age",
      "outputs": [
        {
          "internalType": "uint256",
          "name": "",
          "type": "uint256"
        }
      ],
      "stateMutability": "view",
      "type": "function"
    },
    {
      "inputs": [],
      "name": "course",
      "outputs": [
        {
          "internalType": "string",
          "name": "",
          "type": "string"
        }
      ],
      "stateMutability": "view",
      "type": "function"
    },
    {
      "inputs": [],
      "name": "detailsRequested",
      "outputs": [
        {
          "internalType": "bool",
          "name": "",
          "type": "bool"
        }
      ],
      "stateMutability": "view",
      "type": "function"
    },
    {
      "inputs": [],
      "name": "gmail",
      "outputs": [
        {
          "internalType": "string",
          "name": "",
          "type": "string"
        }
      ],
      "stateMutability": "view",
      "type": "function"
    },
    {
      "inputs": [],
      "name": "id",
      "outputs": [
        {
          "internalType": "string",
          "name": "",
          "type": "string"
        }
      ],
      "stateMutability": "view",
      "type": "function"
    },
    {
      "inputs": [],
      "name": "ipfsHash_certificate",
      "outputs": [
        {
          "internalType": "string",
          "name": "",
          "type": "string"
        }
      ],
      "stateMutability": "view",
      "type": "function"
    },
    {
      "inputs": [],
      "name": "ipfsHash_photo",
      "outputs": [
        {
          "internalType": "string",
          "name": "",
          "type": "string"
        }
      ],
      "stateMutability": "view",
      "type": "function"
    },
    {
      "inputs": [],
      "name": "mobile_no",
      "outputs": [
        {
          "internalType": "uint256",
          "name": "",
          "type": "uint256"
        }
      ],
      "stateMutability": "view",
      "type": "function"
    },
    {
      "inputs": [],
      "name": "name",
      "outputs": [
        {
          "internalType": "string",
          "name": "",
          "type": "string"
        }
      ],
      "stateMutability": "view",
      "type": "function"
    },
    {
      "inputs": [],
      "name": "remarks",
      "outputs": [
        {
          "internalType": "string",
          "name": "",
          "type": "string"
        }
      ],
      "stateMutability": "view",
      "type": "function"
    },
    {
      "inputs": [],
      "name": "teacher",
      "outputs": [
        {
          "internalType": "address",
          "name": "",
          "type": "address"
        }
      ],
      "stateMutability": "view",
      "type": "function"
    },
    {
      "inputs": [],
      "name": "requestDetailsUpdate",
      "outputs": [],
      "stateMutability": "nonpayable",
      "type": "function"
    },
    {
      "inputs": [
        {
          "internalType": "string",
          "name": "_id",
          "type": "string"
        },
        {
          "internalType": "string",
          "name": "_name",
          "type": "string"
        },
        {
          "internalType": "uint256",
          "name": "_age",
          "type": "uint256"
        },
        {
          "internalType": "string",
          "name": "_gmail",
          "type": "string"
        },
        {
          "internalType": "uint256",
          "name": "_mobileno",
          "type": "uint256"
        },
        {
          "internalType": "string",
          "name": "_course",
          "type": "string"
        }
      ],
      "name": "updateDetails",
      "outputs": [],
      "stateMutability": "nonpayable",
      "type": "function"
    },
    {
      "inputs": [
        {
          "internalType": "address",
          "name": "_teacher",
          "type": "address"
        }
      ],
      "name": "assignTeacher",
      "outputs": [],
      "stateMutability": "nonpayable",
      "type": "function"
    },
    {
      "inputs": [
        {
          "internalType": "string",
          "name": "_remarks",
          "type": "string"
        }
      ],
      "name": "addRemarks",
      "outputs": [],
      "stateMutability": "nonpayable",
      "type": "function"
    }
  ],
  "bytecode": "0x60806040523480156200001157600080fd5b50604051620018ee380380620018ee83398181016040528101906200003791906200045b565b88600a90805190602001906200004f9291906200016e565b508760009080519060200190620000689291906200016e565b508660019080519060200190620000819291906200016e565b50856002819055508460039080519060200190620000a19291906200016e565b50836004819055508260059080519060200190620000c19291906200016e565b5081600660006101000a81548173ffffffffffffffffffffffffffffffffffffffff021916908373ffffffffffffffffffffffffffffffffffffffff16021790555080600860006101000a81548173ffffffffffffffffffffffffffffffffffffffff021916908373ffffffffffffffffffffffffffffffffffffffff1602179055506000600660146101000a81548160ff0219169083151502179055505050505050505050506200063a565b8280546200017c9062000604565b90600052602060002090601f016020900481019282620001a05760008555620001ec565b82601f10620001bb57805160ff1916838001178555620001ec565b82800160010185558215620001ec579182015b82811115620001eb578251825591602001919060010190620001ce565b5b509050620001fb9190620001ff565b5090565b5b808211156200021a57600081600090555060010162000200565b5090565b6000604051905090565b600080fd5b600080fd5b600080fd5b600080fd5b6000601f19601f8301169050919050565b7f4e487b7100000000000000000000000000000000000000000000000000000000600052604160045260246000fd5b62000287826200023c565b810181811067ffffffffffffffff82111715620002a957620002a86200024d565b5b80604052505050565b6000620002be6200021e565b9050620002cc82826200027c565b919050565b600067ffffffffffffffff821115620002ef57620002ee6200024d565b5b620002fa826200023c565b9050602081019050919050565b60005b83811015620003275780820151818401526020810190506200030a565b8381111562000337576000848401525b50505050565b6000620003546200034e84620002d1565b620002b2565b90508281526020810184848401111562000373576200037262000237565b5b6200038084828562000307565b509392505050565b600082601f830112620003a0576200039f62000232565b5b8151620003b28482602086016200033d565b91505092915050565b6000819050919050565b620003d081620003bb565b8114620003dc57600080fd5b50565b600081519050620003f081620003c5565b92915050565b600073ffffffffffffffffffffffffffffffffffffffff82169050919050565b60006200042382620003f6565b9050919050565b620004358162000416565b81146200044157600080fd5b50565b60008151905062000455816200042a565b92915050565b60008060008060008060008060006101208a8c03121562000481576200048062000228565b5b60008a015167ffffffffffffffff811115620004a257620004a16200022d565b5b620004b08c828d0162000388565b99505060208a015167ffffffffffffffff811115620004d457620004d36200022d565b5b620004e28c828d0162000388565b98505060408a015167ffffffffffffffff8111156200050657620005056200022d565b5b620005148c828d0162000388565b9750506060620005278c828d01620003df565b96505060808a015167ffffffffffffffff8111156200054b576200054a6200022d565b5b620005598c828d0162000388565b95505060a06200056c8c828d01620003df565b94505060c08a015167ffffffffffffffff81111562000590576200058f6200022d565b5b6200059e8c828d0162000388565b93505060e0620005b18c828d0162000444565b925050610100620005c58c828d0162000444565b9150509295985092959850929598565b7f4e487b7100000000000000000000000000000000000000000000000000000000600052602260045260246000fd5b600060028204905060018216806200061d57607f821691505b60208210811415620006345762000633620005d5565b5b50919050565b6112a4806200064a6000396000f3fe608060405234801561001057600080fd5b506004361061010b5760003560e01c806370f409e1116100a2578063b46bff8911610071578063b46bff8914610262578063dcf6359114610280578063eabf37521461029e578063f649b9c3146102ba578063f851a440146102d65761010b565b806370f409e11461020057806399a852261461021c578063a0d807a91461023a578063af640d0f146102445761010b565b8063440898a4116100de578063440898a41461018857806344410719146101a6578063460e0d66146101c45780635dab2420146101e25761010b565b806306fdde0314610110578063262a9dff1461012e5780632f9c2ae91461014c57806339aff60f1461016a575b600080fd5b6101186102f4565b6040516101259190610c3b565b60405180910390f35b610136610382565b6040516101439190610c76565b60405180910390f35b610154610388565b6040516101619190610c3b565b60405180910390f35b610172610416565b60405161017f9190610cac565b60405180910390f35b610190610429565b60405161019d9190610c3b565b60405180910390f35b6101ae6104b7565b6040516101bb9190610c3b565b60405180910390f35b6101cc610545565b6040516101d99190610c3b565b60405180910390f35b6101ea6105d3565b6040516101f79190610d08565b60405180910390f35b61021a60048036038101906102159190610d63565b6105f9565b005b6102246106cd565b6040516102319190610c76565b60405180910390f35b6102426106d3565b005b61024c6107d0565b6040516102599190610c3b565b60405180910390f35b61026a61085e565b6040516102779190610d08565b60405180910390f35b610288610884565b6040516102959190610c3b565b60405180910390f35b6102b860048036038101906102b39190610ec5565b610912565b005b6102d460048036038101906102cf9190610f3a565b6109bc565b005b6102de610ad9565b6040516102eb9190610d08565b60405180910390f35b6001805461030190611066565b80601f016020809104026020016040519081016040528092919081815260200182805461032d90611066565b801561037a5780601f1061034f5761010080835404028352916020019161037a565b820191906000526020600020905b81548152906001019060200180831161035d57829003601f168201915b505050505081565b60025481565b6007805461039590611066565b80601f01602080910402602001604051908101604052809291908181526020018280546103c190611066565b801561040e5780601f106103e35761010080835404028352916020019161040e565b820191906000526020600020905b8154815290600101906020018083116103f157829003601f168201915b505050505081565b600660149054906101000a900460ff1681565b600a805461043690611066565b80601f016020809104026020016040519081016040528092919081815260200182805461046290611066565b80156104af5780601f10610484576101008083540402835291602001916104af565b820191906000526020600020905b81548152906001019060200180831161049257829003601f168201915b505050505081565b600380546104c490611066565b80601f01602080910402602001604051908101604052809291908181526020018280546104f090611066565b801561053d5780601f106105125761010080835404028352916020019161053d565b820191906000526020600020905b81548152906001019060200180831161052057829003601f168201915b505050505081565b600b805461055290611066565b80601f016020809104026020016040519081016040528092919081815260200182805461057e90611066565b80156105cb5780601f106105a0576101008083540402835291602001916105cb565b820191906000526020600020905b8154815290600101906020018083116105ae57829003601f168201915b505050505081565b600660009054906101000a900473ffffffffffffffffffffffffffffffffffffffff1681565b600860009054906101000a900473ffffffffffffffffffffffffffffffffffffffff1673ffffffffffffffffffffffffffffffffffffffff163373ffffffffffffffffffffffffffffffffffffffff1614610689576040517f08c379a0000000000000000000000000000000000000000000000000000000008152600401610680906110e4565b60405180910390fd5b80600960006101000a81548173ffffffffffffffffffffffffffffffffffffffff021916908373ffffffffffffffffffffffffffffffffffffffff16021790555050565b60045481565b600660009054906101000a900473ffffffffffffffffffffffffffffffffffffffff1673ffffffffffffffffffffffffffffffffffffffff163373ffffffffffffffffffffffffffffffffffffffff1614610763576040517f08c379a000000000000000000000000000000000000000000000000000000000815260040161075a90611150565b60405180910390fd5b600660149054906101000a900460ff16156107b3576040517f08c379a00000000000000000000000000000000000000000000000000000000081526004016107aa906111bc565b60405180910390fd5b6001600660146101000a81548160ff021916908315150217905550565b600080546107dd90611066565b80601f016020809104026020016040519081016040528092919081815260200182805461080990611066565b80156108565780601f1061082b57610100808354040283529160200191610856565b820191906000526020600020905b81548152906001019060200180831161083957829003601f168201915b505050505081565b600960009054906101000a900473ffffffffffffffffffffffffffffffffffffffff1681565b6005805461089190611066565b80601f01602080910402602001604051908101604052809291908181526020018280546108bd90611066565b801561090a5780601f106108df5761010080835404028352916020019161090a565b820191906000526020600020905b8154815290600101906020018083116108ed57829003601f168201915b505050505081565b600960009054906101000a900473ffffffffffffffffffffffffffffffffffffffff1673ffffffffffffffffffffffffffffffffffffffff163373ffffffffffffffffffffffffffffffffffffffff16146109a2576040517f08c379a00000000000000000000000000000000000000000000000000000000081526004016109999061124e565b60405180910390fd5b80600790805190602001906109b8929190610aff565b5050565b600860009054906101000a900473ffffffffffffffffffffffffffffffffffffffff1673ffffffffffffffffffffffffffffffffffffffff163373ffffffffffffffffffffffffffffffffffffffff1614610a4c576040517f08c379a0000000000000000000000000000000000000000000000000000000008152600401610a43906110e4565b60405180910390fd5b8560009080519060200190610a62929190610aff565b508460019080519060200190610a79929190610aff565b50836002819055508260039080519060200190610a97929190610aff565b50816004819055508060059080519060200190610ab5929190610aff565b506000600660146101000a81548160ff021916908315150217905550505050505050565b600860009054906101000a900473ffffffffffffffffffffffffffffffffffffffff1681565b828054610b0b90611066565b90600052602060002090601f016020900481019282610b2d5760008555610b74565b82601f10610b4657805160ff1916838001178555610b74565b82800160010185558215610b74579182015b82811115610b73578251825591602001919060010190610b58565b5b509050610b819190610b85565b5090565b5b80821115610b9e576000816000905550600101610b86565b5090565b600081519050919050565b600082825260208201905092915050565b60005b83811015610bdc578082015181840152602081019050610bc1565b83811115610beb576000848401525b50505050565b6000601f19601f8301169050919050565b6000610c0d82610ba2565b610c178185610bad565b9350610c27818560208601610bbe565b610c3081610bf1565b840191505092915050565b60006020820190508181036000830152610c558184610c02565b905092915050565b6000819050919050565b610c7081610c5d565b82525050565b6000602082019050610c8b6000830184610c67565b92915050565b60008115159050919050565b610ca681610c91565b82525050565b6000602082019050610cc16000830184610c9d565b92915050565b600073ffffffffffffffffffffffffffffffffffffffff82169050919050565b6000610cf282610cc7565b9050919050565b610d0281610ce7565b82525050565b6000602082019050610d1d6000830184610cf9565b92915050565b6000604051905090565b600080fd5b600080fd5b610d4081610ce7565b8114610d4b57600080fd5b50565b600081359050610d5d81610d37565b92915050565b600060208284031215610d7957610d78610d2d565b5b6000610d8784828501610d4e565b91505092915050565b600080fd5b600080fd5b7f4e487b7100000000000000000000000000000000000000000000000000000000600052604160045260246000fd5b610dd282610bf1565b810181811067ffffffffffffffff82111715610df157610df0610d9a565b5b80604052505050565b6000610e04610d23565b9050610e108282610dc9565b919050565b600067ffffffffffffffff821115610e3057610e2f610d9a565b5b610e3982610bf1565b9050602081019050919050565b82818337600083830152505050565b6000610e68610e6384610e15565b610dfa565b905082815260208101848484011115610e8457610e83610d95565b5b610e8f848285610e46565b509392505050565b600082601f830112610eac57610eab610d90565b5b8135610ebc848260208601610e55565b91505092915050565b600060208284031215610edb57610eda610d2d565b5b600082013567ffffffffffffffff811115610ef957610ef8610d32565b5b610f0584828501610e97565b91505092915050565b610f1781610c5d565b8114610f2257600080fd5b50565b600081359050610f3481610f0e565b92915050565b60008060008060008060c08789031215610f5757610f56610d2d565b5b600087013567ffffffffffffffff811115610f7557610f74610d32565b5b610f8189828a01610e97565b965050602087013567ffffffffffffffff811115610fa257610fa1610d32565b5b610fae89828a01610e97565b9550506040610fbf89828a01610f25565b945050606087013567ffffffffffffffff811115610fe057610fdf610d32565b5b610fec89828a01610e97565b9350506080610ffd89828a01610f25565b92505060a087013567ffffffffffffffff81111561101e5761101d610d32565b5b61102a89828a01610e97565b9150509295509295509295565b7f4e487b7100000000000000000000000000000000000000000000000000000000600052602260045260246000fd5b6000600282049050600182168061107e57607f821691505b6020821081141561109257611091611037565b5b50919050565b7f4f6e6c792061646d696e2063616e206368616e67652064657461696c73000000600082015250565b60006110ce601d83610bad565b91506110d982611098565b602082019050919050565b600060208201905081810360008301526110fd816110c1565b9050919050565b7f4f6e6c792073747564656e742063616e20726571756573742075706461746573600082015250565b600061113a602083610bad565b915061114582611104565b602082019050919050565b600060208201905081810360008301526111698161112d565b9050919050565b7f55706461746520616c7265616479207265717565737465640000000000000000600082015250565b60006111a6601883610bad565b91506111b182611170565b602082019050919050565b600060208201905081810360008301526111d581611199565b9050919050565b7f4f6e6c79207468652061737369676e656420746561636865722063616e20656460008201527f69742072656d61726b7300000000000000000000000000000000000000000000602082015250565b6000611238602a83610bad565b9150611243826111dc565b604082019050919050565b600060208201905081810360008301526112678161122b565b905091905056fea2646970667358221220ccbd7b23cd8fd6fe9dc1453411939e1a02b0a0144fedd51d13f9ce93d48e80f864736f6c63430008090033",
  "immutableReferences": {},
  "source": "// SPDX-License-Identifier: MIT\r\npragma solidity ^0.8.9;\r\n\r\nimport \"./Admin.sol\";\r\nimport \"./TeacherFactory.sol\";\r\n\r\ncontract StudentFactory {\r\n    Admin public adminContract; // Store reference to Admin contract\r\n    TeacherFactory public teacherFactoryContract;\r\n    mapping(address => Student) public students;\r\n    address[] public studentAccounts;\r\n\r\n    event StudentCreated(address studentAddress, string name, uint256 age, string course, address account);\r\n    event StudentDeleted(address studentAddress);\r\n    event TeacherAssigned(address studentAddress, address teacherAddress);\r\n\r\n    constructor(address _adminAddress, address _teacherFactoryAddress) {\r\n        adminContract = Admin(_adminAddress);\r\n        teacherFactoryContract = TeacherFactory(_teacherFactoryAddress);\r\n    }\r\n\r\n    function createStudent(string memory _ipfsHash_photo,string memory _id, string memory _name, uint256 _age, string memory _gmail, uint256 _mobileno, string memory _course, address _account) public {\r\n        require(msg.sender == adminContract.admin(), \"Not Allowed\"); // Check admin permission\r\n        require(address(students[_account]) == address(0), \"Student already exists\");\r\n        Student newStudent = new Student(_ipfsHash_photo,_id, _name, _age, _gmail, _mobileno, _course, _account, adminContract.admin());\r\n        students[_account] = newStudent;\r\n        studentAccounts.push(_account);\r\n\r\n        emit StudentCreated(address(newStudent), _name, _age, _course, _account);\r\n    }\r\n\r\n    function assignTeacher(address _studentAccount, address _teacher) public {\r\n        require(msg.sender == adminContract.admin(), \"Not Allowed\");\r\n        require(address(students[_studentAccount]) != address(0), \"Student does not exist\");\r\n        require(teacherFactoryContract.isTeacher(_teacher), \"Teacher does not exist in TeacherFactory\");\r\n\r\n        students[_studentAccount].assignTeacher(_teacher);\r\n        emit TeacherAssigned(_studentAccount, _teacher);\r\n    }\r\n    \r\n    function deleteStudent(address _account) public {\r\n        require(msg.sender == adminContract.admin(), \"Not Allowed\");\r\n        require(address(students[_account]) != address(0), \"Student does not exist\");\r\n        delete students[_account];\r\n\r\n        // Remove the student from the accounts list\r\n        for (uint256 i = 0; i < studentAccounts.length; i++) {\r\n            if (studentAccounts[i] == _account) {\r\n                studentAccounts[i] = studentAccounts[studentAccounts.length - 1];\r\n                studentAccounts.pop();\r\n                break;\r\n            }\r\n        }\r\n\r\n        emit StudentDeleted(_account);\r\n    }\r\n\r\n    function getStudentsWithUpdateRequests() public view returns (address[] memory) {\r\n    address[] memory studentsWithRequests = new address[](studentAccounts.length);\r\n    uint256 count = 0;\r\n\r\n    for (uint256 i = 0; i < studentAccounts.length; i++) {\r\n        Student student = students[studentAccounts[i]];\r\n        if (student.detailsRequested()) {\r\n            studentsWithRequests[count] = studentAccounts[i];\r\n            count++;\r\n        }\r\n    }\r\n\r\n    address[] memory result = new address[](count);\r\n    for (uint256 i = 0; i < count; i++) {\r\n        result[i] = studentsWithRequests[i];\r\n    }\r\n    return result;\r\n}\r\n\r\n\r\n    function getStudent(address _account) public view returns (Student) {\r\n        return students[_account];\r\n    }\r\n\r\n    function getAllStudents() public view returns (address[] memory) {\r\n        return studentAccounts;\r\n    }\r\n\r\n    function getAdminAddress() public view returns (address) {\r\n    return adminContract.admin();\r\n}\r\n\r\n}\r\n\r\ncontract Student {\r\n    string public id;\r\n    string public name;\r\n    uint256 public age;\r\n    string public gmail;\r\n    uint256 public mobile_no;\r\n    string public course;\r\n    address public account;\r\n    bool public detailsRequested;\r\n    string public remarks;\r\n\r\n    address public admin;\r\n    address public teacher;\r\n    \r\n    string public ipfsHash_photo;\r\n    string public ipfsHash_certificate;\r\n    constructor(string memory _ipfsHash_photo,string memory _id, string memory _name, uint256 _age, string memory _gmail, uint256 _mobileno, string memory _course, address _account, address _admin) {\r\n        ipfsHash_photo = _ipfsHash_photo;\r\n        id = _id;\r\n        name = _name;\r\n        age = _age;\r\n        gmail = _gmail;\r\n        mobile_no = _mobileno;\r\n        course = _course;\r\n        account = _account;\r\n        admin = _admin; // Set the admin address from the factory\r\n        detailsRequested = false;\r\n    }\r\n\r\n    modifier onlyTeacher() {\r\n        require(msg.sender == teacher, \"Only the assigned teacher can edit remarks\");\r\n        _;\r\n    }\r\n\r\n    modifier onlyAdmin() {\r\n        require(msg.sender == admin, \"Only admin can change details\");\r\n        _;\r\n    }\r\n\r\n    function requestDetailsUpdate() public {\r\n        require(msg.sender == account, \"Only student can request updates\");\r\n        require(!detailsRequested, \"Update already requested\");\r\n        detailsRequested = true;\r\n    }\r\n\r\n    function updateDetails(string memory _id, string memory _name, uint256 _age, string memory _gmail, uint256 _mobileno, string memory _course) public onlyAdmin {\r\n        id = _id;\r\n        name = _name;\r\n        age = _age;\r\n        gmail = _gmail;\r\n        mobile_no = _mobileno;\r\n        course = _course;\r\n        detailsRequested = false;\r\n    }\r\n\r\n    function assignTeacher(address _teacher) public onlyAdmin {\r\n        teacher = _teacher;\r\n    }\r\n\r\n    function addRemarks(string memory _remarks) public onlyTeacher {\r\n        remarks = _remarks;\r\n    }\r\n}\r\n",
  "sourcePath": "E:\\SGP\\StudentManagement_SGP\\contracts\\StudentFactory.sol",
  "compiler": {
    "name": "solc",
    "version": "0.8.9+commit.e5eed63a.Emscripten.clang"
  },
  "schemaVersion": "3.4.16",
  "updatedAt": "2024-10-06T10:54:36.010Z",
  "devdoc": {
    "kind": "dev",
    "methods": {},
    "version": 1
  },
  "userdoc": {
    "kind": "user",
    "methods": {},
    "version": 1
  }
}