{
  "contractName": "StudentFactory",
  "abi": [
    {
      "inputs": [
        {
          "internalType": "address",
          "name": "_adminAddress",
          "type": "address"
        },
        {
          "internalType": "address",
          "name": "_teacherFactoryAddress",
          "type": "address"
        }
      ],
      "stateMutability": "nonpayable",
      "type": "constructor"
    },
    {
      "anonymous": false,
      "inputs": [
        {
          "indexed": false,
          "internalType": "address",
          "name": "studentAddress",
          "type": "address"
        },
        {
          "indexed": false,
          "internalType": "string",
          "name": "name",
          "type": "string"
        },
        {
          "indexed": false,
          "internalType": "uint256",
          "name": "age",
          "type": "uint256"
        },
        {
          "indexed": false,
          "internalType": "string",
          "name": "course",
          "type": "string"
        },
        {
          "indexed": false,
          "internalType": "address",
          "name": "account",
          "type": "address"
        }
      ],
      "name": "StudentCreated",
      "type": "event"
    },
    {
      "anonymous": false,
      "inputs": [
        {
          "indexed": false,
          "internalType": "address",
          "name": "studentAddress",
          "type": "address"
        }
      ],
      "name": "StudentDeleted",
      "type": "event"
    },
    {
      "anonymous": false,
      "inputs": [
        {
          "indexed": false,
          "internalType": "address",
          "name": "studentAddress",
          "type": "address"
        },
        {
          "indexed": false,
          "internalType": "address",
          "name": "teacherAddress",
          "type": "address"
        }
      ],
      "name": "TeacherAssigned",
      "type": "event"
    },
    {
      "inputs": [],
      "name": "adminContract",
      "outputs": [
        {
          "internalType": "contract Admin",
          "name": "",
          "type": "address"
        }
      ],
      "stateMutability": "view",
      "type": "function",
      "constant": true
    },
    {
      "inputs": [
        {
          "internalType": "uint256",
          "name": "",
          "type": "uint256"
        }
      ],
      "name": "studentAccounts",
      "outputs": [
        {
          "internalType": "address",
          "name": "",
          "type": "address"
        }
      ],
      "stateMutability": "view",
      "type": "function",
      "constant": true
    },
    {
      "inputs": [
        {
          "internalType": "address",
          "name": "",
          "type": "address"
        }
      ],
      "name": "students",
      "outputs": [
        {
          "internalType": "contract Student",
          "name": "",
          "type": "address"
        }
      ],
      "stateMutability": "view",
      "type": "function",
      "constant": true
    },
    {
      "inputs": [],
      "name": "teacherFactoryContract",
      "outputs": [
        {
          "internalType": "contract TeacherFactory",
          "name": "",
          "type": "address"
        }
      ],
      "stateMutability": "view",
      "type": "function",
      "constant": true
    },
    {
      "inputs": [
        {
          "internalType": "string",
          "name": "_ipfsHash_photo",
          "type": "string"
        },
        {
          "internalType": "string",
          "name": "_id",
          "type": "string"
        },
        {
          "internalType": "string",
          "name": "_name",
          "type": "string"
        },
        {
          "internalType": "uint256",
          "name": "_age",
          "type": "uint256"
        },
        {
          "internalType": "string",
          "name": "_gmail",
          "type": "string"
        },
        {
          "internalType": "uint256",
          "name": "_mobileno",
          "type": "uint256"
        },
        {
          "internalType": "string",
          "name": "_course",
          "type": "string"
        },
        {
          "internalType": "address",
          "name": "_account",
          "type": "address"
        }
      ],
      "name": "createStudent",
      "outputs": [],
      "stateMutability": "nonpayable",
      "type": "function"
    },
    {
      "inputs": [
        {
          "internalType": "address",
          "name": "_studentAccount",
          "type": "address"
        },
        {
          "internalType": "address",
          "name": "_teacher",
          "type": "address"
        }
      ],
      "name": "assignTeacher",
      "outputs": [],
      "stateMutability": "nonpayable",
      "type": "function"
    },
    {
      "inputs": [
        {
          "internalType": "address",
          "name": "_account",
          "type": "address"
        }
      ],
      "name": "deleteStudent",
      "outputs": [],
      "stateMutability": "nonpayable",
      "type": "function"
    },
    {
      "inputs": [],
      "name": "getStudentsWithUpdateRequests",
      "outputs": [
        {
          "internalType": "address[]",
          "name": "",
          "type": "address[]"
        }
      ],
      "stateMutability": "view",
      "type": "function",
      "constant": true
    },
    {
      "inputs": [
        {
          "internalType": "address",
          "name": "_account",
          "type": "address"
        }
      ],
      "name": "getStudent",
      "outputs": [
        {
          "internalType": "contract Student",
          "name": "",
          "type": "address"
        }
      ],
      "stateMutability": "view",
      "type": "function",
      "constant": true
    },
    {
      "inputs": [],
      "name": "getAllStudents",
      "outputs": [
        {
          "internalType": "address[]",
          "name": "",
          "type": "address[]"
        }
      ],
      "stateMutability": "view",
      "type": "function",
      "constant": true
    },
    {
      "inputs": [],
      "name": "getAdminAddress",
      "outputs": [
        {
          "internalType": "address",
          "name": "",
          "type": "address"
        }
      ],
      "stateMutability": "view",
      "type": "function",
      "constant": true
    }
  ],
  "bytecode": "0x60806040523480156200001157600080fd5b5060405162003aca38038062003aca83398181016040528101906200003791906200012a565b816000806101000a81548173ffffffffffffffffffffffffffffffffffffffff021916908373ffffffffffffffffffffffffffffffffffffffff16021790555080600160006101000a81548173ffffffffffffffffffffffffffffffffffffffff021916908373ffffffffffffffffffffffffffffffffffffffff160217905550505062000171565b600080fd5b600073ffffffffffffffffffffffffffffffffffffffff82169050919050565b6000620000f282620000c5565b9050919050565b6200010481620000e5565b81146200011057600080fd5b50565b6000815190506200012481620000f9565b92915050565b60008060408385031215620001445762000143620000c0565b5b6000620001548582860162000113565b9250506020620001678582860162000113565b9150509250929050565b61394980620001816000396000f3fe60806040523480156200001157600080fd5b5060043610620000b85760003560e01c8063b2e6b912116200007b578063b2e6b912146200018b578063b5b558e014620001ad578063b65b554b14620001cd578063c05c5e9414620001ef578063cd4e00251462000211578063e9e30927146200024757620000b8565b8063333b34fe14620000bd57806355e8f83514620000df5780636b7b44d714620000ff578063730bcc5d1462000135578063a6c807a91462000155575b600080fd5b620000c762000269565b604051620000d69190620014a5565b60405180910390f35b620000fd6004803603810190620000f791906200151b565b6200028f565b005b6200011d600480360381019062000117919062001562565b62000673565b6040516200012c9190620015b9565b60405180910390f35b6200015360048036038101906200014d919062001562565b620006dc565b005b6200017360048036038101906200016d919062001562565b62000b00565b604051620001829190620015b9565b60405180910390f35b6200019562000b33565b604051620001a49190620015e7565b60405180910390f35b620001cb6004803603810190620001c59190620017a1565b62000bdd565b005b620001d762000fdb565b604051620001e69190620019d3565b60405180910390f35b620001f962001318565b60405162000208919062001a1c565b60405180910390f35b6200022f600480360381019062000229919062001a39565b6200133c565b6040516200023e9190620015e7565b60405180910390f35b620002516200137c565b604051620002609190620019d3565b60405180910390f35b600160009054906101000a900473ffffffffffffffffffffffffffffffffffffffff1681565b60008054906101000a900473ffffffffffffffffffffffffffffffffffffffff1673ffffffffffffffffffffffffffffffffffffffff1663f851a4406040518163ffffffff1660e01b815260040160206040518083038186803b158015620002f657600080fd5b505afa1580156200030b573d6000803e3d6000fd5b505050506040513d601f19601f8201168201806040525081019062000331919062001a82565b73ffffffffffffffffffffffffffffffffffffffff163373ffffffffffffffffffffffffffffffffffffffff1614620003a1576040517f08c379a0000000000000000000000000000000000000000000000000000000008152600401620003989062001b15565b60405180910390fd5b600073ffffffffffffffffffffffffffffffffffffffff16600260008473ffffffffffffffffffffffffffffffffffffffff1673ffffffffffffffffffffffffffffffffffffffff16815260200190815260200160002060009054906101000a900473ffffffffffffffffffffffffffffffffffffffff1673ffffffffffffffffffffffffffffffffffffffff16141562000473576040517f08c379a00000000000000000000000000000000000000000000000000000000081526004016200046a9062001b87565b60405180910390fd5b600160009054906101000a900473ffffffffffffffffffffffffffffffffffffffff1673ffffffffffffffffffffffffffffffffffffffff1663aec37eb3826040518263ffffffff1660e01b8152600401620004d09190620015e7565b60206040518083038186803b158015620004e957600080fd5b505afa158015620004fe573d6000803e3d6000fd5b505050506040513d601f19601f8201168201806040525081019062000524919062001be6565b62000566576040517f08c379a00000000000000000000000000000000000000000000000000000000081526004016200055d9062001c8e565b60405180910390fd5b600260008373ffffffffffffffffffffffffffffffffffffffff1673ffffffffffffffffffffffffffffffffffffffff16815260200190815260200160002060009054906101000a900473ffffffffffffffffffffffffffffffffffffffff1673ffffffffffffffffffffffffffffffffffffffff166370f409e1826040518263ffffffff1660e01b8152600401620006009190620015e7565b600060405180830381600087803b1580156200061b57600080fd5b505af115801562000630573d6000803e3d6000fd5b505050507fda8a7e0b6b76f6b38f26904906155ec69ad33c0ff648b17bc96ef256c4eca80982826040516200066792919062001cb0565b60405180910390a15050565b6000600260008373ffffffffffffffffffffffffffffffffffffffff1673ffffffffffffffffffffffffffffffffffffffff16815260200190815260200160002060009054906101000a900473ffffffffffffffffffffffffffffffffffffffff169050919050565b60008054906101000a900473ffffffffffffffffffffffffffffffffffffffff1673ffffffffffffffffffffffffffffffffffffffff1663f851a4406040518163ffffffff1660e01b815260040160206040518083038186803b1580156200074357600080fd5b505afa15801562000758573d6000803e3d6000fd5b505050506040513d601f19601f820116820180604052508101906200077e919062001a82565b73ffffffffffffffffffffffffffffffffffffffff163373ffffffffffffffffffffffffffffffffffffffff1614620007ee576040517f08c379a0000000000000000000000000000000000000000000000000000000008152600401620007e59062001b15565b60405180910390fd5b600073ffffffffffffffffffffffffffffffffffffffff16600260008373ffffffffffffffffffffffffffffffffffffffff1673ffffffffffffffffffffffffffffffffffffffff16815260200190815260200160002060009054906101000a900473ffffffffffffffffffffffffffffffffffffffff1673ffffffffffffffffffffffffffffffffffffffff161415620008c0576040517f08c379a0000000000000000000000000000000000000000000000000000000008152600401620008b79062001b87565b60405180910390fd5b600260008273ffffffffffffffffffffffffffffffffffffffff1673ffffffffffffffffffffffffffffffffffffffff16815260200190815260200160002060006101000a81549073ffffffffffffffffffffffffffffffffffffffff021916905560005b60038054905081101562000ac3578173ffffffffffffffffffffffffffffffffffffffff166003828154811062000961576200096062001cdd565b5b9060005260206000200160009054906101000a900473ffffffffffffffffffffffffffffffffffffffff1673ffffffffffffffffffffffffffffffffffffffff16141562000aad5760036001600380549050620009bf919062001d3b565b81548110620009d357620009d262001cdd565b5b9060005260206000200160009054906101000a900473ffffffffffffffffffffffffffffffffffffffff166003828154811062000a155762000a1462001cdd565b5b9060005260206000200160006101000a81548173ffffffffffffffffffffffffffffffffffffffff021916908373ffffffffffffffffffffffffffffffffffffffff160217905550600380548062000a725762000a7162001d76565b5b6001900381819060005260206000200160006101000a81549073ffffffffffffffffffffffffffffffffffffffff0219169055905562000ac3565b808062000aba9062001da5565b91505062000925565b507f8b92780c414b9f0cc7e66f9ea0f7eb6a8cf72ac0571cd2445169f4c35c3741838160405162000af59190620015e7565b60405180910390a150565b60026020528060005260406000206000915054906101000a900473ffffffffffffffffffffffffffffffffffffffff1681565b60008060009054906101000a900473ffffffffffffffffffffffffffffffffffffffff1673ffffffffffffffffffffffffffffffffffffffff1663f851a4406040518163ffffffff1660e01b815260040160206040518083038186803b15801562000b9d57600080fd5b505afa15801562000bb2573d6000803e3d6000fd5b505050506040513d601f19601f8201168201806040525081019062000bd8919062001a82565b905090565b60008054906101000a900473ffffffffffffffffffffffffffffffffffffffff1673ffffffffffffffffffffffffffffffffffffffff1663f851a4406040518163ffffffff1660e01b815260040160206040518083038186803b15801562000c4457600080fd5b505afa15801562000c59573d6000803e3d6000fd5b505050506040513d601f19601f8201168201806040525081019062000c7f919062001a82565b73ffffffffffffffffffffffffffffffffffffffff163373ffffffffffffffffffffffffffffffffffffffff161462000cef576040517f08c379a000000000000000000000000000000000000000000000000000000000815260040162000ce69062001b15565b60405180910390fd5b600073ffffffffffffffffffffffffffffffffffffffff16600260008373ffffffffffffffffffffffffffffffffffffffff1673ffffffffffffffffffffffffffffffffffffffff16815260200190815260200160002060009054906101000a900473ffffffffffffffffffffffffffffffffffffffff1673ffffffffffffffffffffffffffffffffffffffff161462000dc0576040517f08c379a000000000000000000000000000000000000000000000000000000000815260040162000db79062001e43565b60405180910390fd5b6000888888888888888860008054906101000a900473ffffffffffffffffffffffffffffffffffffffff1673ffffffffffffffffffffffffffffffffffffffff1663f851a4406040518163ffffffff1660e01b815260040160206040518083038186803b15801562000e3157600080fd5b505afa15801562000e46573d6000803e3d6000fd5b505050506040513d601f19601f8201168201806040525081019062000e6c919062001a82565b60405162000e7a906200140c565b62000e8e9998979695949392919062001ef8565b604051809103906000f08015801562000eab573d6000803e3d6000fd5b50905080600260008473ffffffffffffffffffffffffffffffffffffffff1673ffffffffffffffffffffffffffffffffffffffff16815260200190815260200160002060006101000a81548173ffffffffffffffffffffffffffffffffffffffff021916908373ffffffffffffffffffffffffffffffffffffffff1602179055506003829080600181540180825580915050600190039060005260206000200160009091909190916101000a81548173ffffffffffffffffffffffffffffffffffffffff021916908373ffffffffffffffffffffffffffffffffffffffff1602179055507fbe30b3f691b074bcf0ce43ce5f2db49f76e70fba6d6279ccbfd1ff53d83301a9818888868660405162000fc895949392919062001fba565b60405180910390a1505050505050505050565b6060600060038054905067ffffffffffffffff8111156200100157620010006200161f565b5b604051908082528060200260200182016040528015620010305781602001602082028036833780820191505090505b5090506000805b6003805490508110156200122c576000600260006003848154811062001062576200106162001cdd565b5b9060005260206000200160009054906101000a900473ffffffffffffffffffffffffffffffffffffffff1673ffffffffffffffffffffffffffffffffffffffff1673ffffffffffffffffffffffffffffffffffffffff16815260200190815260200160002060009054906101000a900473ffffffffffffffffffffffffffffffffffffffff1690508073ffffffffffffffffffffffffffffffffffffffff166339aff60f6040518163ffffffff1660e01b815260040160206040518083038186803b1580156200113157600080fd5b505afa15801562001146573d6000803e3d6000fd5b505050506040513d601f19601f820116820180604052508101906200116c919062001be6565b1562001215576003828154811062001189576200118862001cdd565b5b9060005260206000200160009054906101000a900473ffffffffffffffffffffffffffffffffffffffff16848481518110620011ca57620011c962001cdd565b5b602002602001019073ffffffffffffffffffffffffffffffffffffffff16908173ffffffffffffffffffffffffffffffffffffffff16815250508280620012119062001da5565b9350505b508080620012239062001da5565b91505062001037565b5060008167ffffffffffffffff8111156200124c576200124b6200161f565b5b6040519080825280602002602001820160405280156200127b5781602001602082028036833780820191505090505b50905060005b828110156200130e57838181518110620012a0576200129f62001cdd565b5b6020026020010151828281518110620012be57620012bd62001cdd565b5b602002602001019073ffffffffffffffffffffffffffffffffffffffff16908173ffffffffffffffffffffffffffffffffffffffff16815250508080620013059062001da5565b91505062001281565b5080935050505090565b60008054906101000a900473ffffffffffffffffffffffffffffffffffffffff1681565b600381815481106200134d57600080fd5b906000526020600020016000915054906101000a900473ffffffffffffffffffffffffffffffffffffffff1681565b606060038054806020026020016040519081016040528092919081815260200182805480156200140257602002820191906000526020600020905b8160009054906101000a900473ffffffffffffffffffffffffffffffffffffffff1673ffffffffffffffffffffffffffffffffffffffff1681526020019060010190808311620013b7575b5050505050905090565b6118ee806200202683390190565b600073ffffffffffffffffffffffffffffffffffffffff82169050919050565b6000819050919050565b6000620014656200145f62001459846200141a565b6200143a565b6200141a565b9050919050565b6000620014798262001444565b9050919050565b60006200148d826200146c565b9050919050565b6200149f8162001480565b82525050565b6000602082019050620014bc600083018462001494565b92915050565b6000604051905090565b600080fd5b600080fd5b6000620014e3826200141a565b9050919050565b620014f581620014d6565b81146200150157600080fd5b50565b6000813590506200151581620014ea565b92915050565b60008060408385031215620015355762001534620014cc565b5b6000620015458582860162001504565b9250506020620015588582860162001504565b9150509250929050565b6000602082840312156200157b576200157a620014cc565b5b60006200158b8482850162001504565b91505092915050565b6000620015a1826200146c565b9050919050565b620015b38162001594565b82525050565b6000602082019050620015d06000830184620015a8565b92915050565b620015e181620014d6565b82525050565b6000602082019050620015fe6000830184620015d6565b92915050565b600080fd5b600080fd5b6000601f19601f8301169050919050565b7f4e487b7100000000000000000000000000000000000000000000000000000000600052604160045260246000fd5b62001659826200160e565b810181811067ffffffffffffffff821117156200167b576200167a6200161f565b5b80604052505050565b600062001690620014c2565b90506200169e82826200164e565b919050565b600067ffffffffffffffff821115620016c157620016c06200161f565b5b620016cc826200160e565b9050602081019050919050565b82818337600083830152505050565b6000620016ff620016f984620016a3565b62001684565b9050828152602081018484840111156200171e576200171d62001609565b5b6200172b848285620016d9565b509392505050565b600082601f8301126200174b576200174a62001604565b5b81356200175d848260208601620016e8565b91505092915050565b6000819050919050565b6200177b8162001766565b81146200178757600080fd5b50565b6000813590506200179b8162001770565b92915050565b600080600080600080600080610100898b031215620017c557620017c4620014cc565b5b600089013567ffffffffffffffff811115620017e657620017e5620014d1565b5b620017f48b828c0162001733565b985050602089013567ffffffffffffffff811115620018185762001817620014d1565b5b620018268b828c0162001733565b975050604089013567ffffffffffffffff8111156200184a5762001849620014d1565b5b620018588b828c0162001733565b96505060606200186b8b828c016200178a565b955050608089013567ffffffffffffffff8111156200188f576200188e620014d1565b5b6200189d8b828c0162001733565b94505060a0620018b08b828c016200178a565b93505060c089013567ffffffffffffffff811115620018d457620018d3620014d1565b5b620018e28b828c0162001733565b92505060e0620018f58b828c0162001504565b9150509295985092959890939650565b600081519050919050565b600082825260208201905092915050565b6000819050602082019050919050565b6200193c81620014d6565b82525050565b600062001950838362001931565b60208301905092915050565b6000602082019050919050565b6000620019768262001905565b62001982818562001910565b93506200198f8362001921565b8060005b83811015620019c6578151620019aa888262001942565b9750620019b7836200195c565b92505060018101905062001993565b5085935050505092915050565b60006020820190508181036000830152620019ef818462001969565b905092915050565b600062001a04826200146c565b9050919050565b62001a1681620019f7565b82525050565b600060208201905062001a33600083018462001a0b565b92915050565b60006020828403121562001a525762001a51620014cc565b5b600062001a62848285016200178a565b91505092915050565b60008151905062001a7c81620014ea565b92915050565b60006020828403121562001a9b5762001a9a620014cc565b5b600062001aab8482850162001a6b565b91505092915050565b600082825260208201905092915050565b7f4e6f7420416c6c6f776564000000000000000000000000000000000000000000600082015250565b600062001afd600b8362001ab4565b915062001b0a8262001ac5565b602082019050919050565b6000602082019050818103600083015262001b308162001aee565b9050919050565b7f53747564656e7420646f6573206e6f7420657869737400000000000000000000600082015250565b600062001b6f60168362001ab4565b915062001b7c8262001b37565b602082019050919050565b6000602082019050818103600083015262001ba28162001b60565b9050919050565b60008115159050919050565b62001bc08162001ba9565b811462001bcc57600080fd5b50565b60008151905062001be08162001bb5565b92915050565b60006020828403121562001bff5762001bfe620014cc565b5b600062001c0f8482850162001bcf565b91505092915050565b7f5465616368657220646f6573206e6f7420657869737420696e2054656163686560008201527f72466163746f7279000000000000000000000000000000000000000000000000602082015250565b600062001c7660288362001ab4565b915062001c838262001c18565b604082019050919050565b6000602082019050818103600083015262001ca98162001c67565b9050919050565b600060408201905062001cc76000830185620015d6565b62001cd66020830184620015d6565b9392505050565b7f4e487b7100000000000000000000000000000000000000000000000000000000600052603260045260246000fd5b7f4e487b7100000000000000000000000000000000000000000000000000000000600052601160045260246000fd5b600062001d488262001766565b915062001d558362001766565b92508282101562001d6b5762001d6a62001d0c565b5b828203905092915050565b7f4e487b7100000000000000000000000000000000000000000000000000000000600052603160045260246000fd5b600062001db28262001766565b91507fffffffffffffffffffffffffffffffffffffffffffffffffffffffffffffffff82141562001de85762001de762001d0c565b5b600182019050919050565b7f53747564656e7420616c72656164792065786973747300000000000000000000600082015250565b600062001e2b60168362001ab4565b915062001e388262001df3565b602082019050919050565b6000602082019050818103600083015262001e5e8162001e1c565b9050919050565b600081519050919050565b60005b8381101562001e9057808201518184015260208101905062001e73565b8381111562001ea0576000848401525b50505050565b600062001eb38262001e65565b62001ebf818562001ab4565b935062001ed181856020860162001e70565b62001edc816200160e565b840191505092915050565b62001ef28162001766565b82525050565b600061012082019050818103600083015262001f15818c62001ea6565b9050818103602083015262001f2b818b62001ea6565b9050818103604083015262001f41818a62001ea6565b905062001f52606083018962001ee7565b818103608083015262001f66818862001ea6565b905062001f7760a083018762001ee7565b81810360c083015262001f8b818662001ea6565b905062001f9c60e0830185620015d6565b62001fac610100830184620015d6565b9a9950505050505050505050565b600060a08201905062001fd16000830188620015d6565b818103602083015262001fe5818762001ea6565b905062001ff6604083018662001ee7565b81810360608301526200200a818562001ea6565b90506200201b6080830184620015d6565b969550505050505056fe60806040523480156200001157600080fd5b50604051620018ee380380620018ee83398181016040528101906200003791906200045b565b88600a90805190602001906200004f9291906200016e565b508760009080519060200190620000689291906200016e565b508660019080519060200190620000819291906200016e565b50856002819055508460039080519060200190620000a19291906200016e565b50836004819055508260059080519060200190620000c19291906200016e565b5081600660006101000a81548173ffffffffffffffffffffffffffffffffffffffff021916908373ffffffffffffffffffffffffffffffffffffffff16021790555080600860006101000a81548173ffffffffffffffffffffffffffffffffffffffff021916908373ffffffffffffffffffffffffffffffffffffffff1602179055506000600660146101000a81548160ff0219169083151502179055505050505050505050506200063a565b8280546200017c9062000604565b90600052602060002090601f016020900481019282620001a05760008555620001ec565b82601f10620001bb57805160ff1916838001178555620001ec565b82800160010185558215620001ec579182015b82811115620001eb578251825591602001919060010190620001ce565b5b509050620001fb9190620001ff565b5090565b5b808211156200021a57600081600090555060010162000200565b5090565b6000604051905090565b600080fd5b600080fd5b600080fd5b600080fd5b6000601f19601f8301169050919050565b7f4e487b7100000000000000000000000000000000000000000000000000000000600052604160045260246000fd5b62000287826200023c565b810181811067ffffffffffffffff82111715620002a957620002a86200024d565b5b80604052505050565b6000620002be6200021e565b9050620002cc82826200027c565b919050565b600067ffffffffffffffff821115620002ef57620002ee6200024d565b5b620002fa826200023c565b9050602081019050919050565b60005b83811015620003275780820151818401526020810190506200030a565b8381111562000337576000848401525b50505050565b6000620003546200034e84620002d1565b620002b2565b90508281526020810184848401111562000373576200037262000237565b5b6200038084828562000307565b509392505050565b600082601f830112620003a0576200039f62000232565b5b8151620003b28482602086016200033d565b91505092915050565b6000819050919050565b620003d081620003bb565b8114620003dc57600080fd5b50565b600081519050620003f081620003c5565b92915050565b600073ffffffffffffffffffffffffffffffffffffffff82169050919050565b60006200042382620003f6565b9050919050565b620004358162000416565b81146200044157600080fd5b50565b60008151905062000455816200042a565b92915050565b60008060008060008060008060006101208a8c03121562000481576200048062000228565b5b60008a015167ffffffffffffffff811115620004a257620004a16200022d565b5b620004b08c828d0162000388565b99505060208a015167ffffffffffffffff811115620004d457620004d36200022d565b5b620004e28c828d0162000388565b98505060408a015167ffffffffffffffff8111156200050657620005056200022d565b5b620005148c828d0162000388565b9750506060620005278c828d01620003df565b96505060808a015167ffffffffffffffff8111156200054b576200054a6200022d565b5b620005598c828d0162000388565b95505060a06200056c8c828d01620003df565b94505060c08a015167ffffffffffffffff81111562000590576200058f6200022d565b5b6200059e8c828d0162000388565b93505060e0620005b18c828d0162000444565b925050610100620005c58c828d0162000444565b9150509295985092959850929598565b7f4e487b7100000000000000000000000000000000000000000000000000000000600052602260045260246000fd5b600060028204905060018216806200061d57607f821691505b60208210811415620006345762000633620005d5565b5b50919050565b6112a4806200064a6000396000f3fe608060405234801561001057600080fd5b506004361061010b5760003560e01c806370f409e1116100a2578063b46bff8911610071578063b46bff8914610262578063dcf6359114610280578063eabf37521461029e578063f649b9c3146102ba578063f851a440146102d65761010b565b806370f409e11461020057806399a852261461021c578063a0d807a91461023a578063af640d0f146102445761010b565b8063440898a4116100de578063440898a41461018857806344410719146101a6578063460e0d66146101c45780635dab2420146101e25761010b565b806306fdde0314610110578063262a9dff1461012e5780632f9c2ae91461014c57806339aff60f1461016a575b600080fd5b6101186102f4565b6040516101259190610c3b565b60405180910390f35b610136610382565b6040516101439190610c76565b60405180910390f35b610154610388565b6040516101619190610c3b565b60405180910390f35b610172610416565b60405161017f9190610cac565b60405180910390f35b610190610429565b60405161019d9190610c3b565b60405180910390f35b6101ae6104b7565b6040516101bb9190610c3b565b60405180910390f35b6101cc610545565b6040516101d99190610c3b565b60405180910390f35b6101ea6105d3565b6040516101f79190610d08565b60405180910390f35b61021a60048036038101906102159190610d63565b6105f9565b005b6102246106cd565b6040516102319190610c76565b60405180910390f35b6102426106d3565b005b61024c6107d0565b6040516102599190610c3b565b60405180910390f35b61026a61085e565b6040516102779190610d08565b60405180910390f35b610288610884565b6040516102959190610c3b565b60405180910390f35b6102b860048036038101906102b39190610ec5565b610912565b005b6102d460048036038101906102cf9190610f3a565b6109bc565b005b6102de610ad9565b6040516102eb9190610d08565b60405180910390f35b6001805461030190611066565b80601f016020809104026020016040519081016040528092919081815260200182805461032d90611066565b801561037a5780601f1061034f5761010080835404028352916020019161037a565b820191906000526020600020905b81548152906001019060200180831161035d57829003601f168201915b505050505081565b60025481565b6007805461039590611066565b80601f01602080910402602001604051908101604052809291908181526020018280546103c190611066565b801561040e5780601f106103e35761010080835404028352916020019161040e565b820191906000526020600020905b8154815290600101906020018083116103f157829003601f168201915b505050505081565b600660149054906101000a900460ff1681565b600a805461043690611066565b80601f016020809104026020016040519081016040528092919081815260200182805461046290611066565b80156104af5780601f10610484576101008083540402835291602001916104af565b820191906000526020600020905b81548152906001019060200180831161049257829003601f168201915b505050505081565b600380546104c490611066565b80601f01602080910402602001604051908101604052809291908181526020018280546104f090611066565b801561053d5780601f106105125761010080835404028352916020019161053d565b820191906000526020600020905b81548152906001019060200180831161052057829003601f168201915b505050505081565b600b805461055290611066565b80601f016020809104026020016040519081016040528092919081815260200182805461057e90611066565b80156105cb5780601f106105a0576101008083540402835291602001916105cb565b820191906000526020600020905b8154815290600101906020018083116105ae57829003601f168201915b505050505081565b600660009054906101000a900473ffffffffffffffffffffffffffffffffffffffff1681565b600860009054906101000a900473ffffffffffffffffffffffffffffffffffffffff1673ffffffffffffffffffffffffffffffffffffffff163373ffffffffffffffffffffffffffffffffffffffff1614610689576040517f08c379a0000000000000000000000000000000000000000000000000000000008152600401610680906110e4565b60405180910390fd5b80600960006101000a81548173ffffffffffffffffffffffffffffffffffffffff021916908373ffffffffffffffffffffffffffffffffffffffff16021790555050565b60045481565b600660009054906101000a900473ffffffffffffffffffffffffffffffffffffffff1673ffffffffffffffffffffffffffffffffffffffff163373ffffffffffffffffffffffffffffffffffffffff1614610763576040517f08c379a000000000000000000000000000000000000000000000000000000000815260040161075a90611150565b60405180910390fd5b600660149054906101000a900460ff16156107b3576040517f08c379a00000000000000000000000000000000000000000000000000000000081526004016107aa906111bc565b60405180910390fd5b6001600660146101000a81548160ff021916908315150217905550565b600080546107dd90611066565b80601f016020809104026020016040519081016040528092919081815260200182805461080990611066565b80156108565780601f1061082b57610100808354040283529160200191610856565b820191906000526020600020905b81548152906001019060200180831161083957829003601f168201915b505050505081565b600960009054906101000a900473ffffffffffffffffffffffffffffffffffffffff1681565b6005805461089190611066565b80601f01602080910402602001604051908101604052809291908181526020018280546108bd90611066565b801561090a5780601f106108df5761010080835404028352916020019161090a565b820191906000526020600020905b8154815290600101906020018083116108ed57829003601f168201915b505050505081565b600960009054906101000a900473ffffffffffffffffffffffffffffffffffffffff1673ffffffffffffffffffffffffffffffffffffffff163373ffffffffffffffffffffffffffffffffffffffff16146109a2576040517f08c379a00000000000000000000000000000000000000000000000000000000081526004016109999061124e565b60405180910390fd5b80600790805190602001906109b8929190610aff565b5050565b600860009054906101000a900473ffffffffffffffffffffffffffffffffffffffff1673ffffffffffffffffffffffffffffffffffffffff163373ffffffffffffffffffffffffffffffffffffffff1614610a4c576040517f08c379a0000000000000000000000000000000000000000000000000000000008152600401610a43906110e4565b60405180910390fd5b8560009080519060200190610a62929190610aff565b508460019080519060200190610a79929190610aff565b50836002819055508260039080519060200190610a97929190610aff565b50816004819055508060059080519060200190610ab5929190610aff565b506000600660146101000a81548160ff021916908315150217905550505050505050565b600860009054906101000a900473ffffffffffffffffffffffffffffffffffffffff1681565b828054610b0b90611066565b90600052602060002090601f016020900481019282610b2d5760008555610b74565b82601f10610b4657805160ff1916838001178555610b74565b82800160010185558215610b74579182015b82811115610b73578251825591602001919060010190610b58565b5b509050610b819190610b85565b5090565b5b80821115610b9e576000816000905550600101610b86565b5090565b600081519050919050565b600082825260208201905092915050565b60005b83811015610bdc578082015181840152602081019050610bc1565b83811115610beb576000848401525b50505050565b6000601f19601f8301169050919050565b6000610c0d82610ba2565b610c178185610bad565b9350610c27818560208601610bbe565b610c3081610bf1565b840191505092915050565b60006020820190508181036000830152610c558184610c02565b905092915050565b6000819050919050565b610c7081610c5d565b82525050565b6000602082019050610c8b6000830184610c67565b92915050565b60008115159050919050565b610ca681610c91565b82525050565b6000602082019050610cc16000830184610c9d565b92915050565b600073ffffffffffffffffffffffffffffffffffffffff82169050919050565b6000610cf282610cc7565b9050919050565b610d0281610ce7565b82525050565b6000602082019050610d1d6000830184610cf9565b92915050565b6000604051905090565b600080fd5b600080fd5b610d4081610ce7565b8114610d4b57600080fd5b50565b600081359050610d5d81610d37565b92915050565b600060208284031215610d7957610d78610d2d565b5b6000610d8784828501610d4e565b91505092915050565b600080fd5b600080fd5b7f4e487b7100000000000000000000000000000000000000000000000000000000600052604160045260246000fd5b610dd282610bf1565b810181811067ffffffffffffffff82111715610df157610df0610d9a565b5b80604052505050565b6000610e04610d23565b9050610e108282610dc9565b919050565b600067ffffffffffffffff821115610e3057610e2f610d9a565b5b610e3982610bf1565b9050602081019050919050565b82818337600083830152505050565b6000610e68610e6384610e15565b610dfa565b905082815260208101848484011115610e8457610e83610d95565b5b610e8f848285610e46565b509392505050565b600082601f830112610eac57610eab610d90565b5b8135610ebc848260208601610e55565b91505092915050565b600060208284031215610edb57610eda610d2d565b5b600082013567ffffffffffffffff811115610ef957610ef8610d32565b5b610f0584828501610e97565b91505092915050565b610f1781610c5d565b8114610f2257600080fd5b50565b600081359050610f3481610f0e565b92915050565b60008060008060008060c08789031215610f5757610f56610d2d565b5b600087013567ffffffffffffffff811115610f7557610f74610d32565b5b610f8189828a01610e97565b965050602087013567ffffffffffffffff811115610fa257610fa1610d32565b5b610fae89828a01610e97565b9550506040610fbf89828a01610f25565b945050606087013567ffffffffffffffff811115610fe057610fdf610d32565b5b610fec89828a01610e97565b9350506080610ffd89828a01610f25565b92505060a087013567ffffffffffffffff81111561101e5761101d610d32565b5b61102a89828a01610e97565b9150509295509295509295565b7f4e487b7100000000000000000000000000000000000000000000000000000000600052602260045260246000fd5b6000600282049050600182168061107e57607f821691505b6020821081141561109257611091611037565b5b50919050565b7f4f6e6c792061646d696e2063616e206368616e67652064657461696c73000000600082015250565b60006110ce601d83610bad565b91506110d982611098565b602082019050919050565b600060208201905081810360008301526110fd816110c1565b9050919050565b7f4f6e6c792073747564656e742063616e20726571756573742075706461746573600082015250565b600061113a602083610bad565b915061114582611104565b602082019050919050565b600060208201905081810360008301526111698161112d565b9050919050565b7f55706461746520616c7265616479207265717565737465640000000000000000600082015250565b60006111a6601883610bad565b91506111b182611170565b602082019050919050565b600060208201905081810360008301526111d581611199565b9050919050565b7f4f6e6c79207468652061737369676e656420746561636865722063616e20656460008201527f69742072656d61726b7300000000000000000000000000000000000000000000602082015250565b6000611238602a83610bad565b9150611243826111dc565b604082019050919050565b600060208201905081810360008301526112678161122b565b905091905056fea2646970667358221220ccbd7b23cd8fd6fe9dc1453411939e1a02b0a0144fedd51d13f9ce93d48e80f864736f6c63430008090033a2646970667358221220a77bbd9e6e2d0b014b1da9bc096bd781e2cab3ffd9e2fe92555bea72ad4087e664736f6c63430008090033",
  "immutableReferences": {},
  "source": "// SPDX-License-Identifier: MIT\r\npragma solidity ^0.8.9;\r\n\r\nimport \"./Admin.sol\";\r\nimport \"./TeacherFactory.sol\";\r\n\r\ncontract StudentFactory {\r\n    Admin public adminContract; // Store reference to Admin contract\r\n    TeacherFactory public teacherFactoryContract;\r\n    mapping(address => Student) public students;\r\n    address[] public studentAccounts;\r\n\r\n    event StudentCreated(address studentAddress, string name, uint256 age, string course, address account);\r\n    event StudentDeleted(address studentAddress);\r\n    event TeacherAssigned(address studentAddress, address teacherAddress);\r\n\r\n    constructor(address _adminAddress, address _teacherFactoryAddress) {\r\n        adminContract = Admin(_adminAddress);\r\n        teacherFactoryContract = TeacherFactory(_teacherFactoryAddress);\r\n    }\r\n\r\n    function createStudent(string memory _ipfsHash_photo,string memory _id, string memory _name, uint256 _age, string memory _gmail, uint256 _mobileno, string memory _course, address _account) public {\r\n        require(msg.sender == adminContract.admin(), \"Not Allowed\"); // Check admin permission\r\n        require(address(students[_account]) == address(0), \"Student already exists\");\r\n        Student newStudent = new Student(_ipfsHash_photo,_id, _name, _age, _gmail, _mobileno, _course, _account, adminContract.admin());\r\n        students[_account] = newStudent;\r\n        studentAccounts.push(_account);\r\n\r\n        emit StudentCreated(address(newStudent), _name, _age, _course, _account);\r\n    }\r\n\r\n    function assignTeacher(address _studentAccount, address _teacher) public {\r\n        require(msg.sender == adminContract.admin(), \"Not Allowed\");\r\n        require(address(students[_studentAccount]) != address(0), \"Student does not exist\");\r\n        require(teacherFactoryContract.isTeacher(_teacher), \"Teacher does not exist in TeacherFactory\");\r\n\r\n        students[_studentAccount].assignTeacher(_teacher);\r\n        emit TeacherAssigned(_studentAccount, _teacher);\r\n    }\r\n    \r\n    function deleteStudent(address _account) public {\r\n        require(msg.sender == adminContract.admin(), \"Not Allowed\");\r\n        require(address(students[_account]) != address(0), \"Student does not exist\");\r\n        delete students[_account];\r\n\r\n        // Remove the student from the accounts list\r\n        for (uint256 i = 0; i < studentAccounts.length; i++) {\r\n            if (studentAccounts[i] == _account) {\r\n                studentAccounts[i] = studentAccounts[studentAccounts.length - 1];\r\n                studentAccounts.pop();\r\n                break;\r\n            }\r\n        }\r\n\r\n        emit StudentDeleted(_account);\r\n    }\r\n\r\n    function getStudentsWithUpdateRequests() public view returns (address[] memory) {\r\n    address[] memory studentsWithRequests = new address[](studentAccounts.length);\r\n    uint256 count = 0;\r\n\r\n    for (uint256 i = 0; i < studentAccounts.length; i++) {\r\n        Student student = students[studentAccounts[i]];\r\n        if (student.detailsRequested()) {\r\n            studentsWithRequests[count] = studentAccounts[i];\r\n            count++;\r\n        }\r\n    }\r\n\r\n    address[] memory result = new address[](count);\r\n    for (uint256 i = 0; i < count; i++) {\r\n        result[i] = studentsWithRequests[i];\r\n    }\r\n    return result;\r\n}\r\n\r\n\r\n    function getStudent(address _account) public view returns (Student) {\r\n        return students[_account];\r\n    }\r\n\r\n    function getAllStudents() public view returns (address[] memory) {\r\n        return studentAccounts;\r\n    }\r\n\r\n    function getAdminAddress() public view returns (address) {\r\n    return adminContract.admin();\r\n}\r\n\r\n}\r\n\r\ncontract Student {\r\n    string public id;\r\n    string public name;\r\n    uint256 public age;\r\n    string public gmail;\r\n    uint256 public mobile_no;\r\n    string public course;\r\n    address public account;\r\n    bool public detailsRequested;\r\n    string public remarks;\r\n\r\n    address public admin;\r\n    address public teacher;\r\n    \r\n    string public ipfsHash_photo;\r\n    string public ipfsHash_certificate;\r\n    constructor(string memory _ipfsHash_photo,string memory _id, string memory _name, uint256 _age, string memory _gmail, uint256 _mobileno, string memory _course, address _account, address _admin) {\r\n        ipfsHash_photo = _ipfsHash_photo;\r\n        id = _id;\r\n        name = _name;\r\n        age = _age;\r\n        gmail = _gmail;\r\n        mobile_no = _mobileno;\r\n        course = _course;\r\n        account = _account;\r\n        admin = _admin; // Set the admin address from the factory\r\n        detailsRequested = false;\r\n    }\r\n\r\n    modifier onlyTeacher() {\r\n        require(msg.sender == teacher, \"Only the assigned teacher can edit remarks\");\r\n        _;\r\n    }\r\n\r\n    modifier onlyAdmin() {\r\n        require(msg.sender == admin, \"Only admin can change details\");\r\n        _;\r\n    }\r\n\r\n    function requestDetailsUpdate() public {\r\n        require(msg.sender == account, \"Only student can request updates\");\r\n        require(!detailsRequested, \"Update already requested\");\r\n        detailsRequested = true;\r\n    }\r\n\r\n    function updateDetails(string memory _id, string memory _name, uint256 _age, string memory _gmail, uint256 _mobileno, string memory _course) public onlyAdmin {\r\n        id = _id;\r\n        name = _name;\r\n        age = _age;\r\n        gmail = _gmail;\r\n        mobile_no = _mobileno;\r\n        course = _course;\r\n        detailsRequested = false;\r\n    }\r\n\r\n    function assignTeacher(address _teacher) public onlyAdmin {\r\n        teacher = _teacher;\r\n    }\r\n\r\n    function addRemarks(string memory _remarks) public onlyTeacher {\r\n        remarks = _remarks;\r\n    }\r\n}\r\n",
  "sourcePath": "E:\\SGP\\StudentManagement_SGP\\contracts\\StudentFactory.sol",
  "compiler": {
    "name": "solc",
    "version": "0.8.9+commit.e5eed63a.Emscripten.clang"
  },
  "schemaVersion": "3.4.16",
  "updatedAt": "2024-10-06T10:54:38.416Z",
  "networkType": "ethereum",
  "devdoc": {
    "kind": "dev",
    "methods": {},
    "version": 1
  },
  "userdoc": {
    "kind": "user",
    "methods": {},
    "version": 1
  }
}