{
  "contractName": "TeacherFactory",
  "abi": [
    {
      "inputs": [
        {
          "internalType": "address",
          "name": "_adminAddress",
          "type": "address"
        }
      ],
      "stateMutability": "nonpayable",
      "type": "constructor"
    },
    {
      "anonymous": false,
      "inputs": [
        {
          "indexed": false,
          "internalType": "address",
          "name": "teacherAddress",
          "type": "address"
        },
        {
          "indexed": false,
          "internalType": "string",
          "name": "name",
          "type": "string"
        },
        {
          "indexed": false,
          "internalType": "string",
          "name": "subject",
          "type": "string"
        },
        {
          "indexed": false,
          "internalType": "address",
          "name": "account",
          "type": "address"
        }
      ],
      "name": "TeacherCreated",
      "type": "event"
    },
    {
      "inputs": [],
      "name": "adminContract",
      "outputs": [
        {
          "internalType": "contract Admin",
          "name": "",
          "type": "address"
        }
      ],
      "stateMutability": "view",
      "type": "function",
      "constant": true
    },
    {
      "inputs": [
        {
          "internalType": "uint256",
          "name": "",
          "type": "uint256"
        }
      ],
      "name": "teacherAccounts",
      "outputs": [
        {
          "internalType": "address",
          "name": "",
          "type": "address"
        }
      ],
      "stateMutability": "view",
      "type": "function",
      "constant": true
    },
    {
      "inputs": [
        {
          "internalType": "address",
          "name": "",
          "type": "address"
        }
      ],
      "name": "teachers",
      "outputs": [
        {
          "internalType": "contract Teacher",
          "name": "",
          "type": "address"
        }
      ],
      "stateMutability": "view",
      "type": "function",
      "constant": true
    },
    {
      "inputs": [
        {
          "internalType": "string",
          "name": "_id",
          "type": "string"
        },
        {
          "internalType": "string",
          "name": "_name",
          "type": "string"
        },
        {
          "internalType": "string",
          "name": "_subject",
          "type": "string"
        },
        {
          "internalType": "string",
          "name": "_gmail",
          "type": "string"
        },
        {
          "internalType": "address",
          "name": "_account",
          "type": "address"
        }
      ],
      "name": "createTeacher",
      "outputs": [],
      "stateMutability": "nonpayable",
      "type": "function"
    },
    {
      "inputs": [
        {
          "internalType": "address",
          "name": "_account",
          "type": "address"
        }
      ],
      "name": "isTeacher",
      "outputs": [
        {
          "internalType": "bool",
          "name": "",
          "type": "bool"
        }
      ],
      "stateMutability": "view",
      "type": "function",
      "constant": true
    },
    {
      "inputs": [
        {
          "internalType": "address",
          "name": "_account",
          "type": "address"
        }
      ],
      "name": "getTeacher",
      "outputs": [
        {
          "internalType": "contract Teacher",
          "name": "",
          "type": "address"
        }
      ],
      "stateMutability": "view",
      "type": "function",
      "constant": true
    },
    {
      "inputs": [],
      "name": "getAllTeachers",
      "outputs": [
        {
          "internalType": "address[]",
          "name": "",
          "type": "address[]"
        }
      ],
      "stateMutability": "view",
      "type": "function",
      "constant": true
    },
    {
      "inputs": [],
      "name": "getAdminAddress",
      "outputs": [
        {
          "internalType": "address",
          "name": "",
          "type": "address"
        }
      ],
      "stateMutability": "view",
      "type": "function",
      "constant": true
    }
  ],
  "bytecode": "0x60806040523480156200001157600080fd5b50604051620020cd380380620020cd8339818101604052810190620000379190620000e8565b806000806101000a81548173ffffffffffffffffffffffffffffffffffffffff021916908373ffffffffffffffffffffffffffffffffffffffff160217905550506200011a565b600080fd5b600073ffffffffffffffffffffffffffffffffffffffff82169050919050565b6000620000b08262000083565b9050919050565b620000c281620000a3565b8114620000ce57600080fd5b50565b600081519050620000e281620000b7565b92915050565b6000602082840312156200010157620001006200007e565b5b60006200011184828501620000d1565b91505092915050565b611fa3806200012a6000396000f3fe60806040523480156200001157600080fd5b5060043610620000945760003560e01c8063c05c5e941162000063578063c05c5e941462000133578063eb3734d61462000155578063f0a47f78146200018b578063fb4326fa14620001c15762000094565b806309029aac1462000099578063ae63bdc514620000bb578063aec37eb314620000db578063b2e6b9121462000111575b600080fd5b620000a3620001f7565b604051620000b29190620009cc565b60405180910390f35b620000d96004803603810190620000d3919062000b97565b62000287565b005b620000f96004803603810190620000f3919062000c9b565b6200067a565b60405162000108919062000cea565b60405180910390f35b6200011b62000712565b6040516200012a919062000d18565b60405180910390f35b6200013d620007bc565b6040516200014c919062000da0565b60405180910390f35b6200017360048036038101906200016d919062000df8565b620007e0565b60405162000182919062000d18565b60405180910390f35b620001a96004803603810190620001a3919062000c9b565b62000820565b604051620001b8919062000e4f565b60405180910390f35b620001df6004803603810190620001d9919062000c9b565b62000853565b604051620001ee919062000e4f565b60405180910390f35b606060028054806020026020016040519081016040528092919081815260200182805480156200027d57602002820191906000526020600020905b8160009054906101000a900473ffffffffffffffffffffffffffffffffffffffff1673ffffffffffffffffffffffffffffffffffffffff168152602001906001019080831162000232575b5050505050905090565b60008054906101000a900473ffffffffffffffffffffffffffffffffffffffff1673ffffffffffffffffffffffffffffffffffffffff1663f851a4406040518163ffffffff1660e01b815260040160206040518083038186803b158015620002ee57600080fd5b505afa15801562000303573d6000803e3d6000fd5b505050506040513d601f19601f8201168201806040525081019062000329919062000e83565b73ffffffffffffffffffffffffffffffffffffffff163373ffffffffffffffffffffffffffffffffffffffff161462000399576040517f08c379a0000000000000000000000000000000000000000000000000000000008152600401620003909062000f16565b60405180910390fd5b600073ffffffffffffffffffffffffffffffffffffffff16600160008373ffffffffffffffffffffffffffffffffffffffff1673ffffffffffffffffffffffffffffffffffffffff16815260200190815260200160002060009054906101000a900473ffffffffffffffffffffffffffffffffffffffff1673ffffffffffffffffffffffffffffffffffffffff16146200046a576040517f08c379a0000000000000000000000000000000000000000000000000000000008152600401620004619062000f88565b60405180910390fd5b6000858585858560008054906101000a900473ffffffffffffffffffffffffffffffffffffffff1673ffffffffffffffffffffffffffffffffffffffff1663f851a4406040518163ffffffff1660e01b815260040160206040518083038186803b158015620004d857600080fd5b505afa158015620004ed573d6000803e3d6000fd5b505050506040513d601f19601f8201168201806040525081019062000513919062000e83565b6040516200052190620008bc565b62000532969594939291906200102c565b604051809103906000f0801580156200054f573d6000803e3d6000fd5b50905080600160008473ffffffffffffffffffffffffffffffffffffffff1673ffffffffffffffffffffffffffffffffffffffff16815260200190815260200160002060006101000a81548173ffffffffffffffffffffffffffffffffffffffff021916908373ffffffffffffffffffffffffffffffffffffffff1602179055506002829080600181540180825580915050600190039060005260206000200160009091909190916101000a81548173ffffffffffffffffffffffffffffffffffffffff021916908373ffffffffffffffffffffffffffffffffffffffff1602179055507f36db2c6b9c2c00ebec5a98e325742cc1926309cd2daa76862ad44199fbca2ef7818686856040516200066a9493929190620010b5565b60405180910390a1505050505050565b60008073ffffffffffffffffffffffffffffffffffffffff16600160008473ffffffffffffffffffffffffffffffffffffffff1673ffffffffffffffffffffffffffffffffffffffff16815260200190815260200160002060009054906101000a900473ffffffffffffffffffffffffffffffffffffffff1673ffffffffffffffffffffffffffffffffffffffff1614159050919050565b60008060009054906101000a900473ffffffffffffffffffffffffffffffffffffffff1673ffffffffffffffffffffffffffffffffffffffff1663f851a4406040518163ffffffff1660e01b815260040160206040518083038186803b1580156200077c57600080fd5b505afa15801562000791573d6000803e3d6000fd5b505050506040513d601f19601f82011682018060405250810190620007b7919062000e83565b905090565b60008054906101000a900473ffffffffffffffffffffffffffffffffffffffff1681565b60028181548110620007f157600080fd5b906000526020600020016000915054906101000a900473ffffffffffffffffffffffffffffffffffffffff1681565b60016020528060005260406000206000915054906101000a900473ffffffffffffffffffffffffffffffffffffffff1681565b6000600160008373ffffffffffffffffffffffffffffffffffffffff1673ffffffffffffffffffffffffffffffffffffffff16815260200190815260200160002060009054906101000a900473ffffffffffffffffffffffffffffffffffffffff169050919050565b610e5d806200111183390190565b600081519050919050565b600082825260208201905092915050565b6000819050602082019050919050565b600073ffffffffffffffffffffffffffffffffffffffff82169050919050565b60006200092382620008f6565b9050919050565b620009358162000916565b82525050565b60006200094983836200092a565b60208301905092915050565b6000602082019050919050565b60006200096f82620008ca565b6200097b8185620008d5565b93506200098883620008e6565b8060005b83811015620009bf578151620009a388826200093b565b9750620009b08362000955565b9250506001810190506200098c565b5085935050505092915050565b60006020820190508181036000830152620009e8818462000962565b905092915050565b6000604051905090565b600080fd5b600080fd5b600080fd5b600080fd5b6000601f19601f8301169050919050565b7f4e487b7100000000000000000000000000000000000000000000000000000000600052604160045260246000fd5b62000a598262000a0e565b810181811067ffffffffffffffff8211171562000a7b5762000a7a62000a1f565b5b80604052505050565b600062000a90620009f0565b905062000a9e828262000a4e565b919050565b600067ffffffffffffffff82111562000ac15762000ac062000a1f565b5b62000acc8262000a0e565b9050602081019050919050565b82818337600083830152505050565b600062000aff62000af98462000aa3565b62000a84565b90508281526020810184848401111562000b1e5762000b1d62000a09565b5b62000b2b84828562000ad9565b509392505050565b600082601f83011262000b4b5762000b4a62000a04565b5b813562000b5d84826020860162000ae8565b91505092915050565b62000b718162000916565b811462000b7d57600080fd5b50565b60008135905062000b918162000b66565b92915050565b600080600080600060a0868803121562000bb65762000bb5620009fa565b5b600086013567ffffffffffffffff81111562000bd75762000bd6620009ff565b5b62000be58882890162000b33565b955050602086013567ffffffffffffffff81111562000c095762000c08620009ff565b5b62000c178882890162000b33565b945050604086013567ffffffffffffffff81111562000c3b5762000c3a620009ff565b5b62000c498882890162000b33565b935050606086013567ffffffffffffffff81111562000c6d5762000c6c620009ff565b5b62000c7b8882890162000b33565b925050608062000c8e8882890162000b80565b9150509295509295909350565b60006020828403121562000cb45762000cb3620009fa565b5b600062000cc48482850162000b80565b91505092915050565b60008115159050919050565b62000ce48162000ccd565b82525050565b600060208201905062000d01600083018462000cd9565b92915050565b62000d128162000916565b82525050565b600060208201905062000d2f600083018462000d07565b92915050565b6000819050919050565b600062000d6062000d5a62000d5484620008f6565b62000d35565b620008f6565b9050919050565b600062000d748262000d3f565b9050919050565b600062000d888262000d67565b9050919050565b62000d9a8162000d7b565b82525050565b600060208201905062000db7600083018462000d8f565b92915050565b6000819050919050565b62000dd28162000dbd565b811462000dde57600080fd5b50565b60008135905062000df28162000dc7565b92915050565b60006020828403121562000e115762000e10620009fa565b5b600062000e218482850162000de1565b91505092915050565b600062000e378262000d67565b9050919050565b62000e498162000e2a565b82525050565b600060208201905062000e66600083018462000e3e565b92915050565b60008151905062000e7d8162000b66565b92915050565b60006020828403121562000e9c5762000e9b620009fa565b5b600062000eac8482850162000e6c565b91505092915050565b600082825260208201905092915050565b7f4e6f7420416c6c6f776564000000000000000000000000000000000000000000600082015250565b600062000efe600b8362000eb5565b915062000f0b8262000ec6565b602082019050919050565b6000602082019050818103600083015262000f318162000eef565b9050919050565b7f5465616368657220616c72656164792065786973747300000000000000000000600082015250565b600062000f7060168362000eb5565b915062000f7d8262000f38565b602082019050919050565b6000602082019050818103600083015262000fa38162000f61565b9050919050565b600081519050919050565b60005b8381101562000fd557808201518184015260208101905062000fb8565b8381111562000fe5576000848401525b50505050565b600062000ff88262000faa565b62001004818562000eb5565b93506200101681856020860162000fb5565b620010218162000a0e565b840191505092915050565b600060c082019050818103600083015262001048818962000feb565b905081810360208301526200105e818862000feb565b9050818103604083015262001074818762000feb565b905081810360608301526200108a818662000feb565b90506200109b608083018562000d07565b620010aa60a083018462000d07565b979650505050505050565b6000608082019050620010cc600083018762000d07565b8181036020830152620010e0818662000feb565b90508181036040830152620010f6818562000feb565b905062001107606083018462000d07565b9594505050505056fe60806040523480156200001157600080fd5b5060405162000e5d38038062000e5d8339818101604052810190620000379190620003db565b85600090805190602001906200004f92919062000129565b5084600190805190602001906200006892919062000129565b5083600290805190602001906200008192919062000129565b5082600390805190602001906200009a92919062000129565b5081600460006101000a81548173ffffffffffffffffffffffffffffffffffffffff021916908373ffffffffffffffffffffffffffffffffffffffff16021790555080600560006101000a81548173ffffffffffffffffffffffffffffffffffffffff021916908373ffffffffffffffffffffffffffffffffffffffff16021790555050505050505062000558565b828054620001379062000522565b90600052602060002090601f0160209004810192826200015b5760008555620001a7565b82601f106200017657805160ff1916838001178555620001a7565b82800160010185558215620001a7579182015b82811115620001a657825182559160200191906001019062000189565b5b509050620001b69190620001ba565b5090565b5b80821115620001d5576000816000905550600101620001bb565b5090565b6000604051905090565b600080fd5b600080fd5b600080fd5b600080fd5b6000601f19601f8301169050919050565b7f4e487b7100000000000000000000000000000000000000000000000000000000600052604160045260246000fd5b6200024282620001f7565b810181811067ffffffffffffffff8211171562000264576200026362000208565b5b80604052505050565b600062000279620001d9565b905062000287828262000237565b919050565b600067ffffffffffffffff821115620002aa57620002a962000208565b5b620002b582620001f7565b9050602081019050919050565b60005b83811015620002e2578082015181840152602081019050620002c5565b83811115620002f2576000848401525b50505050565b60006200030f62000309846200028c565b6200026d565b9050828152602081018484840111156200032e576200032d620001f2565b5b6200033b848285620002c2565b509392505050565b600082601f8301126200035b576200035a620001ed565b5b81516200036d848260208601620002f8565b91505092915050565b600073ffffffffffffffffffffffffffffffffffffffff82169050919050565b6000620003a38262000376565b9050919050565b620003b58162000396565b8114620003c157600080fd5b50565b600081519050620003d581620003aa565b92915050565b60008060008060008060c08789031215620003fb57620003fa620001e3565b5b600087015167ffffffffffffffff8111156200041c576200041b620001e8565b5b6200042a89828a0162000343565b965050602087015167ffffffffffffffff8111156200044e576200044d620001e8565b5b6200045c89828a0162000343565b955050604087015167ffffffffffffffff81111562000480576200047f620001e8565b5b6200048e89828a0162000343565b945050606087015167ffffffffffffffff811115620004b257620004b1620001e8565b5b620004c089828a0162000343565b9350506080620004d389828a01620003c4565b92505060a0620004e689828a01620003c4565b9150509295509295509295565b7f4e487b7100000000000000000000000000000000000000000000000000000000600052602260045260246000fd5b600060028204905060018216806200053b57607f821691505b60208210811415620005525762000551620004f3565b5b50919050565b6108f580620005686000396000f3fe608060405234801561001057600080fd5b506004361061007d5760003560e01c80635dab24201161005b5780635dab2420146100dc578063af640d0f146100fa578063e64ae14d14610118578063f851a440146101345761007d565b806306fdde03146100825780630a59a98c146100a057806344410719146100be575b600080fd5b61008a610152565b60405161009791906105bc565b60405180910390f35b6100a86101e0565b6040516100b591906105bc565b60405180910390f35b6100c661026e565b6040516100d391906105bc565b60405180910390f35b6100e46102fc565b6040516100f1919061061f565b60405180910390f35b610102610322565b60405161010f91906105bc565b60405180910390f35b610132600480360381019061012d9190610783565b6103b0565b005b61013c61045a565b604051610149919061061f565b60405180910390f35b6001805461015f906107fb565b80601f016020809104026020016040519081016040528092919081815260200182805461018b906107fb565b80156101d85780601f106101ad576101008083540402835291602001916101d8565b820191906000526020600020905b8154815290600101906020018083116101bb57829003601f168201915b505050505081565b600280546101ed906107fb565b80601f0160208091040260200160405190810160405280929190818152602001828054610219906107fb565b80156102665780601f1061023b57610100808354040283529160200191610266565b820191906000526020600020905b81548152906001019060200180831161024957829003601f168201915b505050505081565b6003805461027b906107fb565b80601f01602080910402602001604051908101604052809291908181526020018280546102a7906107fb565b80156102f45780601f106102c9576101008083540402835291602001916102f4565b820191906000526020600020905b8154815290600101906020018083116102d757829003601f168201915b505050505081565b600460009054906101000a900473ffffffffffffffffffffffffffffffffffffffff1681565b6000805461032f906107fb565b80601f016020809104026020016040519081016040528092919081815260200182805461035b906107fb565b80156103a85780601f1061037d576101008083540402835291602001916103a8565b820191906000526020600020905b81548152906001019060200180831161038b57829003601f168201915b505050505081565b600560009054906101000a900473ffffffffffffffffffffffffffffffffffffffff1673ffffffffffffffffffffffffffffffffffffffff163373ffffffffffffffffffffffffffffffffffffffff1614610440576040517f08c379a00000000000000000000000000000000000000000000000000000000081526004016104379061089f565b60405180910390fd5b8060029080519060200190610456929190610480565b5050565b600560009054906101000a900473ffffffffffffffffffffffffffffffffffffffff1681565b82805461048c906107fb565b90600052602060002090601f0160209004810192826104ae57600085556104f5565b82601f106104c757805160ff19168380011785556104f5565b828001600101855582156104f5579182015b828111156104f45782518255916020019190600101906104d9565b5b5090506105029190610506565b5090565b5b8082111561051f576000816000905550600101610507565b5090565b600081519050919050565b600082825260208201905092915050565b60005b8381101561055d578082015181840152602081019050610542565b8381111561056c576000848401525b50505050565b6000601f19601f8301169050919050565b600061058e82610523565b610598818561052e565b93506105a881856020860161053f565b6105b181610572565b840191505092915050565b600060208201905081810360008301526105d68184610583565b905092915050565b600073ffffffffffffffffffffffffffffffffffffffff82169050919050565b6000610609826105de565b9050919050565b610619816105fe565b82525050565b60006020820190506106346000830184610610565b92915050565b6000604051905090565b600080fd5b600080fd5b600080fd5b600080fd5b7f4e487b7100000000000000000000000000000000000000000000000000000000600052604160045260246000fd5b61069082610572565b810181811067ffffffffffffffff821117156106af576106ae610658565b5b80604052505050565b60006106c261063a565b90506106ce8282610687565b919050565b600067ffffffffffffffff8211156106ee576106ed610658565b5b6106f782610572565b9050602081019050919050565b82818337600083830152505050565b6000610726610721846106d3565b6106b8565b90508281526020810184848401111561074257610741610653565b5b61074d848285610704565b509392505050565b600082601f83011261076a5761076961064e565b5b813561077a848260208601610713565b91505092915050565b60006020828403121561079957610798610644565b5b600082013567ffffffffffffffff8111156107b7576107b6610649565b5b6107c384828501610755565b91505092915050565b7f4e487b7100000000000000000000000000000000000000000000000000000000600052602260045260246000fd5b6000600282049050600182168061081357607f821691505b60208210811415610827576108266107cc565b5b50919050565b7f4f6e6c792061646d696e2063616e206d616e616765207465616368657220646560008201527f7461696c73000000000000000000000000000000000000000000000000000000602082015250565b600061088960258361052e565b91506108948261082d565b604082019050919050565b600060208201905081810360008301526108b88161087c565b905091905056fea2646970667358221220548353d66503552c1a87a7970b3d0faab24199dce5cf9522c160b482181ef35764736f6c63430008090033a2646970667358221220a2c2f93b1d804495024feaecf3f5b16d6c650a53cdb8c7fc011cb595b4d917f164736f6c63430008090033",
  "immutableReferences": {},
  "source": "// SPDX-License-Identifier: MIT\r\npragma solidity ^0.8.9;\r\n\r\nimport \"./Admin.sol\";\r\n\r\ncontract TeacherFactory {\r\n    Admin public adminContract; // Store reference to Admin contract\r\n    mapping(address => Teacher) public teachers;\r\n    address[] public teacherAccounts;\r\n\r\n    event TeacherCreated(address teacherAddress, string name, string subject, address account);\r\n\r\n    constructor(address _adminAddress) {\r\n        adminContract = Admin(_adminAddress); // Initialize with admin address\r\n    }\r\n\r\n    function createTeacher(string memory _id, string memory _name, string memory _subject, string memory _gmail, address _account) public {\r\n        require(msg.sender == adminContract.admin(), \"Not Allowed\"); // Check admin permission\r\n        require(address(teachers[_account]) == address(0), \"Teacher already exists\");\r\n\r\n        Teacher newTeacher = new Teacher(_id, _name, _subject, _gmail, _account, adminContract.admin());\r\n        teachers[_account] = newTeacher;\r\n        teacherAccounts.push(_account);\r\n\r\n        emit TeacherCreated(address(newTeacher), _name, _subject, _account);\r\n    }\r\n\r\n    function isTeacher(address _account) public view returns (bool) {\r\n        return address(teachers[_account]) != address(0);\r\n    }\r\n    \r\n    function getTeacher(address _account) public view returns (Teacher) {\r\n        return teachers[_account];\r\n    }\r\n\r\n    function getAllTeachers() public view returns (address[] memory) {\r\n        return teacherAccounts;\r\n    }\r\n\r\n    function getAdminAddress() public view returns (address) {\r\n    return adminContract.admin();\r\n}\r\n\r\n}\r\n\r\ncontract Teacher {\r\n    string public id;\r\n    string public name;\r\n    string public subject;\r\n    string public gmail;\r\n    address public account;\r\n    address public admin;\r\n\r\n    constructor(string memory _id, string memory _name, string memory _subject, string memory _gmail, address _account, address _admin) {\r\n        id = _id;\r\n        name = _name;\r\n        subject = _subject;\r\n        gmail = _gmail;\r\n        account = _account;\r\n        admin = _admin; // Set the admin address from the factory\r\n    }\r\n\r\n    modifier onlyAdmin() {\r\n        require(msg.sender == admin, \"Only admin can manage teacher details\");\r\n        _;\r\n    }\r\n\r\n    function updateSubject(string memory _subject) public onlyAdmin {\r\n        subject = _subject;\r\n    }\r\n}\r\n",
  "sourcePath": "E:\\SGP\\StudentManagement_SGP\\contracts\\TeacherFactory.sol",
  "compiler": {
    "name": "solc",
    "version": "0.8.9+commit.e5eed63a.Emscripten.clang"
  },
  "schemaVersion": "3.4.16",
  "updatedAt": "2024-10-06T10:54:38.424Z",
  "networkType": "ethereum",
  "devdoc": {
    "kind": "dev",
    "methods": {},
    "version": 1
  },
  "userdoc": {
    "kind": "user",
    "methods": {},
    "version": 1
  }
}