{
  "contractName": "Teacher",
  "abi": [
    {
      "inputs": [
        {
          "internalType": "string",
          "name": "_id",
          "type": "string"
        },
        {
          "internalType": "string",
          "name": "_name",
          "type": "string"
        },
        {
          "internalType": "string",
          "name": "_subject",
          "type": "string"
        },
        {
          "internalType": "string",
          "name": "_gmail",
          "type": "string"
        },
        {
          "internalType": "address",
          "name": "_account",
          "type": "address"
        },
        {
          "internalType": "address",
          "name": "_admin",
          "type": "address"
        }
      ],
      "stateMutability": "nonpayable",
      "type": "constructor"
    },
    {
      "inputs": [],
      "name": "account",
      "outputs": [
        {
          "internalType": "address",
          "name": "",
          "type": "address"
        }
      ],
      "stateMutability": "view",
      "type": "function"
    },
    {
      "inputs": [],
      "name": "admin",
      "outputs": [
        {
          "internalType": "address",
          "name": "",
          "type": "address"
        }
      ],
      "stateMutability": "view",
      "type": "function"
    },
    {
      "inputs": [],
      "name": "gmail",
      "outputs": [
        {
          "internalType": "string",
          "name": "",
          "type": "string"
        }
      ],
      "stateMutability": "view",
      "type": "function"
    },
    {
      "inputs": [],
      "name": "id",
      "outputs": [
        {
          "internalType": "string",
          "name": "",
          "type": "string"
        }
      ],
      "stateMutability": "view",
      "type": "function"
    },
    {
      "inputs": [],
      "name": "name",
      "outputs": [
        {
          "internalType": "string",
          "name": "",
          "type": "string"
        }
      ],
      "stateMutability": "view",
      "type": "function"
    },
    {
      "inputs": [],
      "name": "subject",
      "outputs": [
        {
          "internalType": "string",
          "name": "",
          "type": "string"
        }
      ],
      "stateMutability": "view",
      "type": "function"
    },
    {
      "inputs": [
        {
          "internalType": "string",
          "name": "_subject",
          "type": "string"
        }
      ],
      "name": "updateSubject",
      "outputs": [],
      "stateMutability": "nonpayable",
      "type": "function"
    }
  ],
  "bytecode": "0x60806040523480156200001157600080fd5b5060405162000e5d38038062000e5d8339818101604052810190620000379190620003db565b85600090805190602001906200004f92919062000129565b5084600190805190602001906200006892919062000129565b5083600290805190602001906200008192919062000129565b5082600390805190602001906200009a92919062000129565b5081600460006101000a81548173ffffffffffffffffffffffffffffffffffffffff021916908373ffffffffffffffffffffffffffffffffffffffff16021790555080600560006101000a81548173ffffffffffffffffffffffffffffffffffffffff021916908373ffffffffffffffffffffffffffffffffffffffff16021790555050505050505062000558565b828054620001379062000522565b90600052602060002090601f0160209004810192826200015b5760008555620001a7565b82601f106200017657805160ff1916838001178555620001a7565b82800160010185558215620001a7579182015b82811115620001a657825182559160200191906001019062000189565b5b509050620001b69190620001ba565b5090565b5b80821115620001d5576000816000905550600101620001bb565b5090565b6000604051905090565b600080fd5b600080fd5b600080fd5b600080fd5b6000601f19601f8301169050919050565b7f4e487b7100000000000000000000000000000000000000000000000000000000600052604160045260246000fd5b6200024282620001f7565b810181811067ffffffffffffffff8211171562000264576200026362000208565b5b80604052505050565b600062000279620001d9565b905062000287828262000237565b919050565b600067ffffffffffffffff821115620002aa57620002a962000208565b5b620002b582620001f7565b9050602081019050919050565b60005b83811015620002e2578082015181840152602081019050620002c5565b83811115620002f2576000848401525b50505050565b60006200030f62000309846200028c565b6200026d565b9050828152602081018484840111156200032e576200032d620001f2565b5b6200033b848285620002c2565b509392505050565b600082601f8301126200035b576200035a620001ed565b5b81516200036d848260208601620002f8565b91505092915050565b600073ffffffffffffffffffffffffffffffffffffffff82169050919050565b6000620003a38262000376565b9050919050565b620003b58162000396565b8114620003c157600080fd5b50565b600081519050620003d581620003aa565b92915050565b60008060008060008060c08789031215620003fb57620003fa620001e3565b5b600087015167ffffffffffffffff8111156200041c576200041b620001e8565b5b6200042a89828a0162000343565b965050602087015167ffffffffffffffff8111156200044e576200044d620001e8565b5b6200045c89828a0162000343565b955050604087015167ffffffffffffffff81111562000480576200047f620001e8565b5b6200048e89828a0162000343565b945050606087015167ffffffffffffffff811115620004b257620004b1620001e8565b5b620004c089828a0162000343565b9350506080620004d389828a01620003c4565b92505060a0620004e689828a01620003c4565b9150509295509295509295565b7f4e487b7100000000000000000000000000000000000000000000000000000000600052602260045260246000fd5b600060028204905060018216806200053b57607f821691505b60208210811415620005525762000551620004f3565b5b50919050565b6108f580620005686000396000f3fe608060405234801561001057600080fd5b506004361061007d5760003560e01c80635dab24201161005b5780635dab2420146100dc578063af640d0f146100fa578063e64ae14d14610118578063f851a440146101345761007d565b806306fdde03146100825780630a59a98c146100a057806344410719146100be575b600080fd5b61008a610152565b60405161009791906105bc565b60405180910390f35b6100a86101e0565b6040516100b591906105bc565b60405180910390f35b6100c661026e565b6040516100d391906105bc565b60405180910390f35b6100e46102fc565b6040516100f1919061061f565b60405180910390f35b610102610322565b60405161010f91906105bc565b60405180910390f35b610132600480360381019061012d9190610783565b6103b0565b005b61013c61045a565b604051610149919061061f565b60405180910390f35b6001805461015f906107fb565b80601f016020809104026020016040519081016040528092919081815260200182805461018b906107fb565b80156101d85780601f106101ad576101008083540402835291602001916101d8565b820191906000526020600020905b8154815290600101906020018083116101bb57829003601f168201915b505050505081565b600280546101ed906107fb565b80601f0160208091040260200160405190810160405280929190818152602001828054610219906107fb565b80156102665780601f1061023b57610100808354040283529160200191610266565b820191906000526020600020905b81548152906001019060200180831161024957829003601f168201915b505050505081565b6003805461027b906107fb565b80601f01602080910402602001604051908101604052809291908181526020018280546102a7906107fb565b80156102f45780601f106102c9576101008083540402835291602001916102f4565b820191906000526020600020905b8154815290600101906020018083116102d757829003601f168201915b505050505081565b600460009054906101000a900473ffffffffffffffffffffffffffffffffffffffff1681565b6000805461032f906107fb565b80601f016020809104026020016040519081016040528092919081815260200182805461035b906107fb565b80156103a85780601f1061037d576101008083540402835291602001916103a8565b820191906000526020600020905b81548152906001019060200180831161038b57829003601f168201915b505050505081565b600560009054906101000a900473ffffffffffffffffffffffffffffffffffffffff1673ffffffffffffffffffffffffffffffffffffffff163373ffffffffffffffffffffffffffffffffffffffff1614610440576040517f08c379a00000000000000000000000000000000000000000000000000000000081526004016104379061089f565b60405180910390fd5b8060029080519060200190610456929190610480565b5050565b600560009054906101000a900473ffffffffffffffffffffffffffffffffffffffff1681565b82805461048c906107fb565b90600052602060002090601f0160209004810192826104ae57600085556104f5565b82601f106104c757805160ff19168380011785556104f5565b828001600101855582156104f5579182015b828111156104f45782518255916020019190600101906104d9565b5b5090506105029190610506565b5090565b5b8082111561051f576000816000905550600101610507565b5090565b600081519050919050565b600082825260208201905092915050565b60005b8381101561055d578082015181840152602081019050610542565b8381111561056c576000848401525b50505050565b6000601f19601f8301169050919050565b600061058e82610523565b610598818561052e565b93506105a881856020860161053f565b6105b181610572565b840191505092915050565b600060208201905081810360008301526105d68184610583565b905092915050565b600073ffffffffffffffffffffffffffffffffffffffff82169050919050565b6000610609826105de565b9050919050565b610619816105fe565b82525050565b60006020820190506106346000830184610610565b92915050565b6000604051905090565b600080fd5b600080fd5b600080fd5b600080fd5b7f4e487b7100000000000000000000000000000000000000000000000000000000600052604160045260246000fd5b61069082610572565b810181811067ffffffffffffffff821117156106af576106ae610658565b5b80604052505050565b60006106c261063a565b90506106ce8282610687565b919050565b600067ffffffffffffffff8211156106ee576106ed610658565b5b6106f782610572565b9050602081019050919050565b82818337600083830152505050565b6000610726610721846106d3565b6106b8565b90508281526020810184848401111561074257610741610653565b5b61074d848285610704565b509392505050565b600082601f83011261076a5761076961064e565b5b813561077a848260208601610713565b91505092915050565b60006020828403121561079957610798610644565b5b600082013567ffffffffffffffff8111156107b7576107b6610649565b5b6107c384828501610755565b91505092915050565b7f4e487b7100000000000000000000000000000000000000000000000000000000600052602260045260246000fd5b6000600282049050600182168061081357607f821691505b60208210811415610827576108266107cc565b5b50919050565b7f4f6e6c792061646d696e2063616e206d616e616765207465616368657220646560008201527f7461696c73000000000000000000000000000000000000000000000000000000602082015250565b600061088960258361052e565b91506108948261082d565b604082019050919050565b600060208201905081810360008301526108b88161087c565b905091905056fea2646970667358221220548353d66503552c1a87a7970b3d0faab24199dce5cf9522c160b482181ef35764736f6c63430008090033",
  "immutableReferences": {},
  "source": "// SPDX-License-Identifier: MIT\r\npragma solidity ^0.8.9;\r\n\r\nimport \"./Admin.sol\";\r\n\r\ncontract TeacherFactory {\r\n    Admin public adminContract; // Store reference to Admin contract\r\n    mapping(address => Teacher) public teachers;\r\n    address[] public teacherAccounts;\r\n\r\n    event TeacherCreated(address teacherAddress, string name, string subject, address account);\r\n\r\n    constructor(address _adminAddress) {\r\n        adminContract = Admin(_adminAddress); // Initialize with admin address\r\n    }\r\n\r\n    function createTeacher(string memory _id, string memory _name, string memory _subject, string memory _gmail, address _account) public {\r\n        require(msg.sender == adminContract.admin(), \"Not Allowed\"); // Check admin permission\r\n        require(address(teachers[_account]) == address(0), \"Teacher already exists\");\r\n\r\n        Teacher newTeacher = new Teacher(_id, _name, _subject, _gmail, _account, adminContract.admin());\r\n        teachers[_account] = newTeacher;\r\n        teacherAccounts.push(_account);\r\n\r\n        emit TeacherCreated(address(newTeacher), _name, _subject, _account);\r\n    }\r\n\r\n    function isTeacher(address _account) public view returns (bool) {\r\n        return address(teachers[_account]) != address(0);\r\n    }\r\n    \r\n    function getTeacher(address _account) public view returns (Teacher) {\r\n        return teachers[_account];\r\n    }\r\n\r\n    function getAllTeachers() public view returns (address[] memory) {\r\n        return teacherAccounts;\r\n    }\r\n\r\n    function getAdminAddress() public view returns (address) {\r\n    return adminContract.admin();\r\n}\r\n\r\n}\r\n\r\ncontract Teacher {\r\n    string public id;\r\n    string public name;\r\n    string public subject;\r\n    string public gmail;\r\n    address public account;\r\n    address public admin;\r\n\r\n    constructor(string memory _id, string memory _name, string memory _subject, string memory _gmail, address _account, address _admin) {\r\n        id = _id;\r\n        name = _name;\r\n        subject = _subject;\r\n        gmail = _gmail;\r\n        account = _account;\r\n        admin = _admin; // Set the admin address from the factory\r\n    }\r\n\r\n    modifier onlyAdmin() {\r\n        require(msg.sender == admin, \"Only admin can manage teacher details\");\r\n        _;\r\n    }\r\n\r\n    function updateSubject(string memory _subject) public onlyAdmin {\r\n        subject = _subject;\r\n    }\r\n}\r\n",
  "sourcePath": "E:\\SGP\\StudentManagement_SGP\\contracts\\TeacherFactory.sol",
  "compiler": {
    "name": "solc",
    "version": "0.8.9+commit.e5eed63a.Emscripten.clang"
  },
  "schemaVersion": "3.4.16",
  "updatedAt": "2024-10-06T10:54:36.031Z",
  "devdoc": {
    "kind": "dev",
    "methods": {},
    "version": 1
  },
  "userdoc": {
    "kind": "user",
    "methods": {},
    "version": 1
  }
}